@ba23 ; Affinity 
@bb01 ; MemBank 
@bc03 ; Command 
:020000020C00F0
:100000003CC1089581E084C082E082C083E080C06A
:1000100084E07EC085E07CC0E4D0E7C087E078C0A3
:1000200088E076C089E074C08AE072C08BE070C05E
:100030008CE06EC08DE06CC06EC000008AC0000015
:1000400080E166C081E164C082E162C083E160C09A
:1000500084E15EC085E15CC086E15AC087E158C09A
:1000600088E156C0F7C00000C2C000008BE150C05C
:100070008CE14EC08DE14CC08DE14AC08FE148C09B
:1000800080E246C081E244C082E242C0F0C000008B
:1001000001003FD2020100002114DE68FFBCF7C2EB
:10011000A8951AD2FFCF0FB73F014001E091866A40
:10012000E395EF3008F0EE27E093866AF0E0E656BC
:10013000FF4E09946BC27BC280C297C223C327C300
:100140002BC32FC333C337C33BC33FC344C34AC3CB
:1001500051C3E89B06C0E89820921301C0920208A0
:100160001895FF93EF93EFB7EF93DF93CF93BF9380
:10017000AF93E0911C0BF0911D0BA091C669B0915B
:10018000C769E093C669F093C769EA1BE093C86941
:10019000FB0BF093C9696894B2E0E037FB0708F401
:1001A000ED9AB3E0EC30FB0730F0E894B4E0E833CC
:1001B000FB0708F4ED9AF091140BE0E1A091E169DE
:1001C000EE9BFE27EE98E3E0A211E4E0E093330219
:1001D000F093140BEFEFE093160BE091CA69F3E292
:1001E000099401E00093530118950C94952C3F015C
:1001F000E0917E6AF0917F6A009110060193009170
:1002000011060083E091806AF091816A0191009368
:100210000C060191009308060191009309060191D3
:100220000093000601910093010601910093B00034
:10023000019100937E6A019100937F6A019100937E
:100240000B06019100930A06E093806AF093816A9D
:10025000F301189500E3009386060091870600934A
:10026000870604FF189504E00093536A18950FB7AA
:100270002092031021600FBF1895A895F8942224AE
:100280002DBAE8EDE0933400E5E8E0930110EFE1EA
:10029000F9E6EDBFFEBFE0E0F9E6C8E4D9E021925F
:1002A0002197E9F720922508A2E4A0931202AFE477
:1002B000A0931302A3E0A0933302A8E0A0935704F5
:1002C000A4E0A0937104A0937204A0937504A0937A
:1002D0001504A09314040D98059A0C98049A4F9A4B
:1002E00047984F98479A47986598699A6A9A61988B
:1002F0006298A4E0A0935304A0937304A0937404A1
:10030000A0E0A093E705A1E0A093030AA1E0A093D9
:10031000000AE0E0FBE02082218222862386A0EE14
:10032000BEE22486B587A1E0A683A1E0A583A3E071
:10033000A083E0E1FBE02082A2E0A183A1E4A4830A
:10034000A1E0A683A583A3E0A083A3E0A09320025D
:10035000A4E0A0932102B8EDA1E0A093C001A3E422
:10036000B4BFA093C901AEEEB4BFA093CB01A1E08E
:10037000B4BFA093C801A0E1A0931102E0E8FBE0A4
:10038000A2E0A0933702A0933802A4E0A08BA18B37
:10039000A1E8A087A187E0E8FBE0B8EDA0E0A18399
:1003A000A0E0A283A3E3B4BFA28BAFEFA2A723A6D2
:1003B000A6A727A6A0A7A1A7A4A7A5A7A685A0FF33
:1003C000FDCFC0910614A1E0C13009F4A3E0C23012
:1003D00009F4A9E0C33009F4ABE0B4BFA083A09155
:1003E0005101A0FDFCCFA9E1A0935001A1E0A09391
:1003F0005301A0935201A3E8A093B000A5E0A093FD
:10040000B400A5E0A093B200E0E0F6E0A1E1A08393
:10041000A0E0A183ABE0A283A0E0A383A0E0A4833B
:10042000A2E0A0930506A2E0A087A1E0A187AFEF1C
:10043000A0938506A4E2A0938206A1E3A09386067A
:10044000A7E1A0938006A4E0A0937604A1E4A09382
:10045000A006A4E72092A206A093A3060E94422F22
:10046000E8EDE4BFE9E0E09300010E94CD1E0E94A8
:100470002F220E94372F0E94372F0E946D290E9441
:10048000CF2981D027D50E94181B56D70E94B12BA7
:100490000E940B2C0E945D2E0E9490250E94372FF7
:1004A000E1E0E0935068DAD3EFEFE093060BE093DE
:1004B000160BE0935301E09304100C94242C089540
:1004C0000C944D1DE0E006C0E79904C000C0E4991B
:1004D00024C019C0E4990CC000C0E095E093A80BBB
:1004E0002092A90BEFEFE093AC0BE093AD0B1FC094
:1004F000E095E093AC0B2092AD0BEFEFE093A80BEF
:10050000E093A90B14C0E093AC0B2092AD0BE0E09C
:10051000E093A80BE093A90B0AC0E093A80B2092EC
:10052000A90BE0E0E093AC0BE093AD0B00C0EFEF64
:10053000E093AA0B2092AB0BE093AE0B2092AF0B93
:10054000E1E0E093840B0895EFEF0E2EE0E8FBE08E
:1005500000A601A604A605A6EACFE0E00E2EE0E87C
:10056000FBE000A601A604A605A6E1CFE09131704C
:10057000E1FF03C000C0E0E001C0E1E8E093880BC8
:10058000E093890B08954F9A479A0E94B6122CBAAD
:100590008091317084FDE79A82FD15D082FF0FD0E3
:1005A000C093876AE0939268F093896AE091026849
:1005B000E1FF0DD0E1E8FBE6C0E4D2E7E1C2CBE029
:1005C000E9E0F0EC0895CFEFE9E0F8EF0895E0E01E
:1005D000FE2FFF7729F0EA95FA9511F4E29A01C00F
:1005E000E298E09398680895E0919668EE23089564
:1005F000E0910870E093A8680895E0919868E07829
:10060000E7CFECE0E093866A08950895E1E0E09397
:10061000866A9ADFE49B6198E4996298E09107709A
:10062000F0E3EF9FE0EBF4E0E00DF11DF2C0E1E05C
:10063000E093866AE0EBF4E0ECC0E2E0E093866AE7
:100640006198629820920506E19904C0E19AEAEC6B
:10065000FEED03C0E198EAEFFEED0090317003FC7F
:10066000789672D3E0EBF4E0D4C0E0913270009061
:10067000317000FE05C0F0919668EF0F08F4EFEFBF
:10068000F0ECEF9FE091826AF091836AF7FF05C07A
:10069000F095E195FF4FF7FDFFE7EE0FFF1FE093A9
:1006A0009468F0939568CF93C12DC095EC9FE12D90
:1006B000FC9F0E0E121C10F0000C111CCF91F12D9E
:1006C00008F4FFEFF0939368E0919668EE2341F011
:1006D000529902C0779B37C0FE1799F018F113C0EA
:1006E0002092936820929468209295682092A9683D
:1006F000EFEFE093866A20929168E4DEE4EFFBE09E
:1007000088C0E89420C0E0919168E23008F0EA9552
:10071000E0939168E091A968E211EA95E093A968F5
:10072000E89411C0F0919268E0919168EF1708F495
:10073000E395E0939168E091A968E395E211E09375
:10074000A968689400C0619A629A1090A968E091C3
:10075000896A0EF0E19DE12DB7DEE0919168F0E04D
:10076000ED54FC4E099437C030C02AC024C01EC0CE
:1007700018C012C00CC006C000C0E3E0E093866A57
:10078000EFEF43C0E4E0E093866AEFEF3EC0E5E0C0
:10079000E093866AEFEF39C0E6E0E093866AE0EF27
:1007A00034C0E7E0E093866AECED2FC0E8E0E09328
:1007B000866AE8EC2AC0E9E0E093866AE4EB25C0AB
:1007C000EAE0E093866AECE820C0E091876AE09373
:1007D000866AEFEF1AC0EFEFE093866AE0E07ADE18
:1007E000EFEF13C0EDE0E093866AE0EF76DEEFEF27
:1007F000FFEF0CC0EFEFE093866AE0EF79DEEFEFFA
:10080000FFEF04C0E091A9685FCEFCE0EF9FF0012C
:1008100000C0E0930C0BF0930D0BE1E0E093060BAE
:100820000401F3010FBF1895909137701090387044
:10083000191A8FB780FD119400909668000C09F486
:100840004CC0019C80FD911980FF910D1090397072
:10085000919D000C111CE099812DE09B892FF8944B
:10086000E0919468F09195687894E89FE12DF99F64
:100870000E0E121C80E0881FEAE9F8E6A081B18123
:10088000C281D381E09905C0A019B109C80BD20972
:1008900004C0A00DB11DC81FD21DA083B183F89460
:1008A000C283D3837894A481B581C681D781A00DFA
:1008B000B11DC81FD21DA483B583C683D783A2856B
:1008C000B385C485D585A019B109C80BD209A28703
:1008D000B387F894C487D5877894C0919968D091EC
:1008E000566AE0919768F0919868CF019827E8944C
:1008F00097FD689497FDF078CF018F779F77E29905
:10090000CC27923010F0D2FD9695A091956BAC70EB
:1009100011F09927F078891721F49030A9F0891700
:1009200089F040F0D5FDC0E0C15078F4C09103706B
:10093000EA950BC0D4FDC0E0C15038F4C0910270FC
:10094000E39503C0CC2701C0EF2FC0939968E093D3
:100950009768E7FFE09AE7FDE098EF77E093966805
:1009600009F0E2E00EF4E061F091E169F0FDE4608D
:10097000E09BF095F0FFE860809130709CB382FDC1
:10098000909590FFE160FFE10E945527F0E0E0FDC7
:10099000F160E3FDF260E4FDF860F093996B9CB3C5
:1009A00081FF909590FDE49A90FFE498E4E6F09141
:1009B000A968FE9F000C121C1092AA680895EAE92B
:1009C000F8E60580A681B781000CAA1FBB1F000CAA
:1009D000AA1FBB1F000CAA1FBB1F02101196F89480
:1009E000A087B18778942482258226822782B695B3
:1009F000A795CA2FE1E8FBE6D2D0ACEEAB9FA09161
:100A00003C70A19DD001D0E0AA0FBB1FDD1FAA0F33
:100A1000B21D08F4D1E0F894B093AB68D093AC6801
:100A20007894E091A868E211EA95E093A868E21151
:100A3000EE13E3DD08952092746B0895E091746BDA
:100A4000E43020F4F0E0EA5DFA4E099403C005C0FA
:100A50000DC013C0E0915168BBCDE091716BF09176
:100A6000726B2AD0E091736BB3DD19C0C1DD2AD05F
:100A7000E091736BE078ACDD12C00895E0E012C045
:100A80006F707F78E62FA72FAA0FA7F9F0E0E09309
:100A9000716BF093726BA093736BE1E003C0E09114
:100AA000746BE395E093746B0895E091746BE030A0
:100AB00009F0E3300895F0E00CD028822982EA831F
:100AC000FB83089506D00B8007FC08950F900F90CC
:100AD0000895C4EAD8E6AFE6BBE60895F894B6D028
:100AE000F894C6D00C944417F894A6D0B7D00C94C0
:100AF00044170E94462FF894A895FFCF0C944617F0
:100B0000E770F0E0E45FF445E08108950102040835
:100B100010204080019009928A95E1F70895019094
:100B20001990011411F48A95D1F7089529928A95A4
:100B3000E9F70895208221822282238208959FEF7F
:100B400099938A95E9F70895E0E0FFE80990E02598
:100B5000E0818A95D9F7EE230895799FE001689F97
:100B6000D001699FB00DC11DD21D789FB00DC11D70
:100B7000D21D089580E406C080E204C080E102C076
:100B800088E000C0C083D1838283238224822582AF
:100B9000CDCF11D00BC00FD007C00DD003C00BD0EC
:100BA000AA0FBB1FAA0FBB1FAA0FBB1FAA0FBB1FF9
:100BB000AA0FBB1F0895B381A081AB0FB181B21DF5
:100BC000DC91CC93A481B581AD1BB209AC0FB21DF1
:100BD000A483B583C281D381D395DC1708F0DD27C8
:100BE000D38308951FD005FE0EC001800DC01AD01A
:100BF00006FE09C001800AC015D007FE04C00180AE
:100C000007C010D039F00895000C111C000C111C05
:100C1000000C111C10820FB6F894218222822382CC
:100C20000FBE08951180100C11821280121C1282C6
:100C30000380039403820895C0E0D8E6AAE1B0E0FF
:100C40001FC0C0E0D8E6AEE1B0E027C0C0E0D8E603
:100C500080E46CDFEFEFE0931F680895C0E4D8E60E
:100C6000AAE3B0E00DC0C0E4D8E6AEE3B0E015C042
:100C7000C0E4D8E680E85ADFEFEFE0937F6808959C
:100C80000E940617F001A095B095C095D095A0835D
:100C9000B183C283D383248208950E940617F00192
:100CA00080830895E0913B70E53008F0E2E0F0E0E9
:100CB000E55AF94E099421C01EC00AC006C000C002
:100CC00080918868209288681AC08091956B17C0BF
:100CD00090914C6880914D68892B31F00CD009D0EF
:100CE00014D009D006D014C006D003D014C00C9480
:100CF0001F2E0C94242EFBDF05C0FBDF03C08211E6
:100D0000FACFFBCF82E390E009C088EC90E006C008
:100D100088EE93E003C088EE93E000C00C94B52DFC
:100D2000E0917E6AF0917F6AEF2B0895CF93C09196
:100D30007E6AC21106C0C0917F6AC21102C0CF9103
:100D400003C0CF9188940895CF93C2E0C0930A0660
:100D5000C1E0C0930D06C191C0930006C191C0933C
:100D60000206C191C0930306C191C0930406C191CC
:100D7000C0930C06C191C0930806C191C0930906A7
:100D8000C191C0930006C191C0930106C191C09367
:100D9000B000C191C0937E6AC191C0937F6AC19136
:100DA000C0930B06C191C0930A06E093806AF0934A
:100DB000816ACF91089408957695679576956795A1
:100DC00076956795769567958091061190910711B4
:100DD000861B970B6091041170910511BEDEC695BC
:100DE000B795C695B795C695B795C695B7957C2F17
:100DF0006B2F08950C9410000C9411000C941200A9
:100E00000C9413000C9414000C9415000C94160010
:100E10000C9417000C9418000C9419000C941A00F0
:100E20000C941B000C941C000C941D000C941E00D0
:100E30000C941F000C9420000C9421000C942200B0
:100E40000C9423000C9424000C9425000C94260090
:100E50000C9427000C9428000C9429000C942A0070
:100E60000C942B000C942C000C942D000C942E0050
:100E70000C942F000C9430000C9431000C94320030
:100E80000C9433000C9434000C9435000C94360010
:100E90000C9437000C9438000C9439000C943A00F0
:100EA0000C943B000C943C000C943D000C943E00D0
:100EB0000C943F000C9440000C9441000C944200B0
:100EC0000C9443000C9444000C9445000C94460090
:100ED0000C944700CDD5EFE7E093876BE5E7FBE6A1
:100EE000C0E0D2E749DEEBE7FBE6C0E2D2E744CE62
:100EF0000895F894E091266A2092266A7894E0306A
:100F000009F40895EF3208F0DACAC091246AD9E6EC
:100F1000E257F0E0F84E09950C94BD17D0CAE3C033
:100F20000CC110C1CDCACBCACACAC9CAC9CAC8CAAB
:100F300034C148C166C174C187C19AC1ADC1C0C1C5
:100F4000D3C1E6C1AEC0BBCABACABACAB9CAB8CA66
:100F5000B7CAB6CAB4CAB3CAB2CAB1CAB0CAB1C0B3
:100F6000AFCAADCAACCAABCAABC0F1C1F0C1EFC128
:100F7000EEC1EDC1EBC107C2EBC1A895F894609139
:100F8000A56B7091A66B789417DFEB01CF5DD04015
:100F9000EFE8FBE60C2E26DE6894E091E169F09123
:100FA0003070EF27E0FDE894D091A16BC091A26B67
:100FB000C7FF05C0C095D195CF4FC7FDCFE7DD0F67
:100FC000CC1FE5E7FBE6E7DD16F0B093A76B16F460
:100FD000B093A86BD091A36BC091A46BC7FF05C061
:100FE000C095D195CF4FC7FDCFE7DD0FCC1FEBE705
:100FF000FBE6D1DD16F4B093A76B16F0B093A86BA7
:10100000A091A76BAB0FA795A093E469A25308F436
:10101000A0E0A0939A6BA091A76BB091A86BAB1BBB
:10102000A058E7E8FBE60A2EDDDDC091856AEBE813
:10103000FBE60C2ED7DDE0914E6AF091506AEF1777
:1010400008F4EF2FE093516AE091516AE093526AFD
:1010500080E0A0913470A093A306B0ECAB9FB09158
:101060008B6BB11508F08160A0913570B0918F6BDA
:10107000B25308F4B0E0BA1708F08460A09136705B
:10108000B091E469BA1708F088600E946B2709F0F4
:1010900082608093956B90911A70982B90931A7040
:1010A000089520925168E2E5F8E62192219221927A
:1010B000219221922192219221922192CFDD3CC155
:1010C0000895E091276AE33019F099818A8103C07D
:1010D00090E089818F77EFB7F8948093106A9093AE
:1010E000116AEFBF0895E881E4FBEE0FE0F9E6FB3B
:1010F000EF71E43010F4E6950DC0E450F0E080911B
:10110000197084FDE35C84FDFF4884FFE25E84FF88
:10111000FE44E081E7F994D1EF13A0DD0FC103078E
:101120000C1015191E22272B3034393D42464B4FE7
:1011300054585D61666A6F73787EE98181D1EF13DF
:101140008DDDFCC0E9817CD1FE27F0E08A819091A1
:101150005268809352688927F82BE091276AE5301E
:10116000C8F08B8190915368809353688927F82B3E
:10117000E63080F08C819091546880935468892780
:10118000F82BE73038F08D81909155688093556841
:101190008927F82BF21162DDCFC0FF27E091126A98
:1011A0008091136A8695EE1FE095EF71888184FB2C
:1011B000880F80F9909152683CD180935268F21167
:1011C0004DDDBEC0FF2788818295880F90915268BF
:1011D000E091126AEE0FE095E07E2BD18093526889
:1011E0008881880F829590915368E091126AEE0F82
:1011F000EE1FE095E1701DD180935368F2112EDD52
:101200009FC0FF278881880F90915368E091136AEF
:10121000E095EE710ED180935368F2111FDD90C0FE
:10122000FF27E091136AE5FD089589819091536845
:10123000F7D080935368898190915468F5D080935A
:101240005468F2110BDD7CC0FF27E091136AE5FDC5
:101250000895898190915468E3D08093546889817E
:1012600090915568E1D080935568F211F7DC68C021
:10127000FF27E091136AE6FD0895898190915568F2
:10128000CFD080935568898190915668CDD0809356
:101290005668F211E3DC54C0FF27E091136AE6FDC3
:1012A0000895898190915668BBD080935668898152
:1012B00090915768B9D080935768F211CFDC40C045
:1012C000FF27E091136AE6FD0895898190915768A0
:1012D000A7D080935768898190915868A5D0809352
:1012E0005868F211BBDC2CC0FF27E091136AE6FDC1
:1012F000089589819091586893D080935868898126
:101300009091596891D080935968F211A7DC18C068
:10131000FF27E091136AE6FD08958981909159684D
:101320007FD080935968898190915A687DD080934D
:101330005A68F21193DC04C001D002C059D9ADC380
:10134000809152688091536853D9A7C387CC089580
:101350004BD9C1F430D031F482E0CEEFD4E10E9419
:10136000B029BECB8091276A853038F02196E0E223
:10137000F8E683E0D4DB31F0B3CBF981E091226869
:10138000FE13AECB0895E881E93008F00895F0E04F
:10139000E553F64E099408C008C008C008C0089577
:1013A0000895089508950895089598CB97CBE1E0A6
:1013B000E093506853CCF0914C68E0914D68EF2B6E
:1013C0000895E23060F100900570109001700118EE
:1013D000039400928E6800900470109005700118BC
:1013E000039400928F68FE2FE03408F0FFE3009032
:1013F0008E680F9E000C111CF0910170F695F10D96
:10140000E03438F0EF5300908F680E9E000C111CF2
:10141000F10DEF2FE7FDEFE7E23008F4E2E0089589
:101420008295880FE0EE05C0869586958695EFE15A
:1014300000C08E23E095E9238E2B9827F92B089581
:10144000FE2F8091146A82110895F0910F70F07848
:10145000EC99EF2780911970F0E880FDEF278091DB
:101460002268F091E169F07887FDEF27E7FBEF77DD
:10147000A8DFE7F9F0915168E09351680895529B15
:1014800005C0ECE4FFED52CC5299FBCFE4E6FFED52
:101490004DCCA881A3700E94252BB981CF93DF93F7
:1014A0000E94C12ADF91CF91689409F4E89440F535
:1014B000F881EA81FC7039F0F43031F0FC3041F011
:1014C000E4FF14C00CC01CC0DEF0AE17C1F018C0A1
:1014D000AE2F0E94C62AA1F498F4216010C0AE2F4E
:1014E0000E94CA2A69F460F4216009C04EF0E3FB4F
:1014F00007DBAE230EF0EE27EA2709F001C081C812
:101500000895A881A3700E94252BB9810E94C12A49
:1015100021F408F008C3EA2F09C3FDC2AA81B981EA
:101520000E94262BE881E370E0939C6BBB810E94B4
:10153000C12AB9F4A0939D6BB3950E94C12A89F486
:10154000A0939E6BB3950E94C12A59F4A0939F6B00
:10155000B3950E94C12A29F4A093A06BCCE9DBE6E5
:10156000E7C2D9C2E89402C0689400C089F40E941E
:101570007229E53068F0A881A3700E94252BB981FB
:10158000AA810E94C52A29F418F42160EA2FCEC24C
:10159000CAC2C1C2B9F50E947229E13198F1B9817C
:1015A000AA810E94262BECE9FBE6A881A370A08308
:1015B000AC81A183BD81B283BE81B383BF81B4837B
:1015C000BB810E94C62AF9F4A0939D6BB395A091AC
:1015D0009E6B0E94C62AB9F4A0939E6BB395A0910E
:1015E0009F6B0E94C62A79F4A0939F6BB395A0913C
:1015F000A06B0E94C62A39F4A093A06B2160CCE9AD
:10160000DBE696C290C287C20E947F2978F0A0E0F4
:101610000E94252BBCE10E94C12A49F4E881E0FB2D
:10162000A5F90E94C62A19F4216097C27CC273C230
:10163000E0EFE093E66A0E94FA16E093E76A0E9400
:101640000A17D093E86AC093E96AB093EA6AA09354
:10165000EB6AC2EFDAE6E0E8E88385E00E94A415D1
:10166000E883CCEEDAE6E0EDE883E0E0E983E0E071
:10167000EA832B822C8285E00E94A415E88322D085
:1016800000C0F7E0E0910A0BEF230DC0E091FC6A87
:10169000F091FD6AEA953AF4FF0FF760FF77E09169
:1016A0000A0BEF2300C0E093FC6AF093FD6A0895F3
:1016B000F0914C68E0914D68EF2B0895E091FB6A42
:1016C000EE2308952092FB6A0895F091FA6AE09360
:1016D000FA6AFE1B08F4F195F53008F0F3CF08958F
:1016E000CF93DF93E6EEFAE6A991AF70B191BF70A8
:1016F000AB1731F4A991B191AB1711F4EC3ED1F7CE
:10170000DF91CF9108958F93E5E1FAE6A091276AE2
:101710008A2F8C0FB081A193BA17A081B991BA0713
:10172000B1938C13FACFC091246A8F910895E2E0AF
:1017300013C0E3E011C0E4E00FC0E5E00DC0E6E057
:101740000BC0EAE009C0E3E0F4E007C0E4E0F7E042
:1017500004C0E6E0F9E001C0FE2FAE1718F0FA175A
:1017600008F00895E0918C68F0918D683196E093CF
:101770008C68F0938D68E0918468E395E0938468C9
:10178000EF91EF9100C0E0E0AAC08BD1E5E2A7C0E5
:10179000CEDFEFE1A4C0CBDFE0D1E1E0A0C0C9DF44
:1017A000DCD1E6E29CC0C5DFD8D1E2E098C0CEDF54
:1017B000D4D1E3E094C0BFDFB3D1E4E090C0C3DF95
:1017C000ACD1E1E28CC0B3DFA8D1E2E288C0AFDFE8
:1017D000A7D1E3E284C0B3DFE5E081C0ACDFE6E09F
:1017E0007EC0ABDFE7E07BC0A4DF9AD1E8E077C042
:1017F000A2DF96D1E9E073C09ADFAFD1EAE06FC013
:1018000096DFABD1EBE06BC092DFA7D1ECE067C015
:1018100090DFA3D1EDE063C08CDF9FD1EEE05FC02D
:1018200088DF9BD1EFE05BC084DF97D1E0E157C058
:1018300080DF93D1E1E153C07CDF8FD1E2E14FC083
:1018400078DF8BD1E3E14BC072DFE091296AE39549
:10185000E211E093296AE4E144C069DF61D1E5E186
:101860003EC071DF5DD1E6E13AC0A43011F098F4DA
:1018700025C0E881E3FD05C0E2FF1DC042DEE7E1CF
:101880002EC0E2FF04C03FDF6DDEE8E128C03BDF91
:101890006BDEE9E124C0E881FE2FE370F3FD06C0B2
:1018A000F2FF09C04ADF3ADEEAE119C052DF2BDF5E
:1018B00071DEEBE114C034D1EDE111C031D1E4E2CD
:1018C0000EC0E0E20CC03FDFE0912A6AE395E2112E
:1018D000E0932A6AE23009F4DCDDECE104C02092F6
:1018E000296A20922A6AE093266AE091D069E093FF
:1018F000256A2062089521DFEA81E7DED9DE39F426
:10190000DDDE29F4C3DE19F4FFD1E7E2E8CF3BCFF7
:1019100014DFEA81DADECCDE39F4D0DE29F4B6DE7B
:1019200019F4F2D1E8E2DBCF2ECF07DFEA81CDDE7A
:101930002ACF03DFEA81C9DEBBDE31F4BFDE21F44A
:10194000A0DEE2D1EAE2CBCF1ECF2197C9DE09F0BB
:101950001CCFE1E0E093FB6ADFD1EBE2C0CFF1DE28
:101960002197BEDE09F011CFFE81EF81F06CF0937C
:101970000F6AE0930E6AE1E0E093FB6AC9D1ECE202
:10198000AECFEEE2ACCFE091276AE350EB30F8F453
:10199000E093276AF0E0E651F34E0995D1F4E09127
:1019A000276AAAEEB9EBAE0FB21DBC91CB0FAE2FDA
:1019B000AB1BA093276AC093246AD9E6E881E9307B
:1019C00040F4F0E0E550F34E0995EDE288CFCADE31
:1019D000DACEDBCE1FC01CC01DC02DC019C025C073
:1019E0002AC026C022C016C023C000000002000486
:1019F00002060400060008C007C006C005C006C0F5
:101A000005C004C003C002C0A2D008958CD00895C0
:101A10001894089598940895E8E4F8E621C0ECE459
:101A2000F8E61EC0EEE4F8E61BC0E0E4F8E610C0FD
:101A3000E4E4F8E605C0F3DFD1F0EEDFC1F0F2CF69
:101A4000A581BD81AB1799F4A481BC81AB1779F452
:101A5000A381BB81AB1759F4A281BA81AB1739F4CA
:101A6000A181B981AB1719F4A081B881AB17089592
:101A700000C0CCE2DAE68DE2899380E0ADE2B0E727
:101A800003D002D0288208959D91E8E08395969531
:101A900008F48993EA95D1F70895E2E3E09390681A
:101AA0000895E0912B6AE395E33008F0E0E0E093DD
:101AB0002B6AF0E0E35AF24E099402C012C01BC038
:101AC000E0919068EA95E7FDE0939068E0911970E5
:101AD000E5FF05C0E0910D70EF73E068E2C0E0E063
:101AE000E0C0E0911970E5FF03C0E0910E70DEC028
:101AF000E0910070DBC0E0911870E3FFD2CFF0916D
:101B0000546AE0E0F2FDE160F3FDE260F1FDE460C3
:101B1000F5FDE860D0C0C0D0C4CFBED0D1D0C1CF19
:101B2000BBD0D2D0BECFB8D0D1D0BBCFD3D0B9CF1D
:101B3000E991DE01A4D0E85FE883ED91E983ED91BE
:101B4000EA83ED91EB83ED91EC83C9D0AACFE0E07D
:101B5000F0E0A0E0B0E0E4D0EBC0ECE2FAE6E08137
:101B6000A191C081C211CC13EDE2E0932C6AEFEB9E
:101B7000FDE1EA0FF21D90D082D0099592CFA0C06E
:101B8000AFC00EC00FC010C011C012C013C014C02F
:101B900015C016C017C018C019C018C017C016C08D
:101BA00017D027C060D067C056D059C016D01AC011
:101BB0001DD05DC022D025C028D02BC02ED031C072
:101BC00034D037C03AD03DC040D042C079D078C080
:101BD000E091AB68F091AC6892C0E0919668E068E3
:101BE000F2E08DC0E091AA68F2E089C0E5E1F3E09F
:101BF00086C0E0918768F7E082C0E0918B6BF8E0E7
:101C00007EC0E0910468F9E07AC0E091D46AFAE01D
:101C100076C0E091D06AFBE072C0E091A268FCE07F
:101C20006EC0E091A368FDE06AC0E091876BFEE0C2
:101C300066C0E091D96AFFE062C0E091106AF0E10D
:101C40005EC0E091116AF1E15AC0E0E0F2E157C0F4
:101C5000E0E0F3E154C0E0919C68F8E150C0E0910D
:101C60009D68F9E14CC0E0918F6BFAE148C0E091CA
:101C7000996BFBE144C0E0919A6BFEE240C0CEEE6E
:101C8000D9E60895A6EEB9E60895A8EEB9E6089556
:101C9000A091E569B9E60895F8DFA093E569089594
:101CA00047C0EDDFF1E0F883E98349C0E8DFF2E007
:101CB000F883E98344C0E3DFF3E0F883E9833FC0BE
:101CC000CFE041C0C0EF3FC0CCE33DC0CFE03BD050
:101CD000CCE339C0D4DFE0DF2882E9833AC042C0D8
:101CE000C6EFD9E6E4E0E883A0E8B8E6ED91EC833E
:101CF000ED91EB83ED91EA83ED91E98333C0E983C4
:101D0000FA83F7E0F8832AC0EF9AC6EEDAE634C029
:101D1000EF9ACCEEDAE630C0EF9AC2EFDAE62CC0EA
:101D2000AEDFE883F983AA83BB83E0E1EC831FC0C5
:101D3000F091FB69FF0F28F1FF0F18F12BC0A2DF14
:101D4000E3E021D0BBC8A4DFE1E01DD0CD93A5CF57
:101D50009FDFE3E018D0B2D8A0CF9ADFE7E013D03E
:101D6000ABD89BCF92DFFFE315D0A2D896CF8DDF03
:101D7000FFE310D09FD891CF85DFFFEF0BD096D82F
:101D80008CCFF0E007C0F091FB6902C0FF1FC8F3E1
:101D9000E695E0F3F093FB6908950895C2EDD9E666
:101DA000A091D1692092266AE881E752F0E0F14ED5
:101DB0000994FFC014C113C112C111C110C10FC1D8
:101DC0000EC10DC10CC10BC10AC109C108C107C1B7
:101DD00006C105C104C103C102C101C100C1FFC0E8
:101DE000FEC0FDC0FCC0FBC0FAC0F9C0F8C0F7C01F
:101DF000F6C0F5C0F4C0F3C0F2C0F1C0F0C0EFC04F
:101E0000EEC0EDC0ECC0EBC0EAC0E9C0E8C0E7C07E
:101E1000E6C0E5C0E4C0E3C0E2C0E1C0E0C0DFC0AE
:101E2000DEC0DDC0DCC0DBC0DAC0D9C0D8C0D7C0DE
:101E3000D6C0D5C0D4C0D3C0D2C0D1C0D0C0CFC00E
:101E4000CEC0CDC0CCC0CBC0CAC0C9C0C8C0C7C03E
:101E5000C6C0C5C0C4C0C3C0C2C0C1C0C0C0BFC06E
:101E6000BEC0BDC0BCC0BBC0BAC0B9C0B8C0B7C09E
:101E7000B6C0B5C0B4C0B3C0B2C0B1C0B0C0AFC0CE
:101E8000AEC0ADC0ACC0ABC0AAC0A9C0A8C0A7C0FE
:101E9000A6C0A0C09FC09EC09DC09CC09BC09AC051
:101EA00099C098C097C096C095C094C093C092C086
:101EB00091C0B0C0AFC0AEC0ADC0ACC0ABC0AAC0D6
:101EC000A9C0A8C0A7C0A6C0A5C0A4C0A3C0A2C0E6
:101ED000A1C0A0C09FC09EC09DC09CC09BC09AC016
:101EE00099C098C097C096C095C094C093C092C046
:101EF00091C090C08FC08EC08DC08CC08BC08AC076
:101F000089C088C087C086C085C084C083C082C0A5
:101F100081C080C07FC07EC07DC07CC07BC07AC0D5
:101F200079C078C077C076C075C074C073C072C005
:101F300071C071C070C06FC06EC06DC06CC06BC02E
:101F40006AC069C068C067C066C065C064C063C05D
:101F500062C061C060C05FC05EC05DC05CC05BC08D
:101F60005AC059C058C057C056C055C054C053C0BD
:101F700052C051C050C04FC04EC04DC04CC04BC0ED
:101F80004AC01AC019C018C017C016C015C014C066
:101F900013C012C011C010C00FC00EC00DC00CC0C5
:101FA0000BC00AC009C008C007C006C00DC009C0E8
:101FB0000EC0A150219670C0A093276AC093246AD6
:101FC0007DCCA150219625C1A15021962BC2A150B4
:101FD000219617C1E091296AE33008F074CCEA9A9F
:101FE000E991A1506894F091106AFE13E894B091C1
:101FF000116AB211E894BF2BF0910E6AFE1739F402
:10200000F0910F6AF7FD03C0B21128C045C00EF071
:10201000BCCB32C053CCEA9AE981F881A250229617
:10202000E33021F4F03C11F4EB9A57C0B0910F6A01
:10203000BF17B0910E6ABE0741F4E091106AF091AB
:10204000116AEF2BE2110AC027C0B091116ABF17C5
:10205000B091106ABE0709F098CB0EC0E0911170E4
:10206000EC67E093126AE0911270E160E093136A0A
:10207000E1E0E093146A16C0EC9AE0911170E095EB
:10208000E378E093126AE0911270E095EE7FE093BE
:10209000136A2092146A06C02092126A2092136A70
:1020A0002092146AA093276AC093246AE881E2957B
:1020B000EF70E35AF0E0FF4D09942BC040C055C0CB
:1020C00054C069CB68CB67CB66CB96CB95CB9CCB0A
:1020D00097CB71C070C0C9CBC4CBA093276AC09303
:1020E000246AEA98E881E295EF70E758F0E0FF4D46
:1020F000099449CB48CB47CB46CB45CB44CB43CBCC
:1021000042CB41CB40CB3FCB3ECB3DCB3CCBADCB11
:10211000A8CBE991EF70E157F0E0FF4D099494CB23
:102120009CCBCFCBCECBC7CBC6CBC5CBC4CBC3CB45
:10213000C2CB4DCB4CCBBFCBBECBBDCB44CBE991BF
:10214000EF70EB55F0E0FF4D0994B5CBB4CB37CB36
:1021500036CBB1CBB0CBAFCBAECBADCBACCBABCB2F
:10216000AACBA9CBA8CBA7CBA6CBE991EF71E5541D
:10217000F0E0FF4D09949FCB9ECB9DCB9CCB9BCB9E
:102180009ACB99CB98CB97CB96CB95CB94CB93CB43
:1021900092CB91CB90CB8FCB8ECB8DCB8CCB8BCB73
:1021A0008ACB89CB88CB87CB86CB85CB84CBFFCA28
:1021B00002CBF5CAF8CAE991EF71EF51F0E0FF4D9B
:1021C000099416CB08CB0ACB0CCB75CB74CB73CB55
:1021D00072CB71CB70CB6FCB6ECB6DCB6CCB6BCB33
:1021E0006ACB69CB68CB67CB66CB65CB64CB63CB63
:1021F00062CB16CB19CB1CCB1FCB22CBF5CA08CB9D
:102200000BCBA093276AC093246AE881E211BBCA72
:10221000BFCAA093276AC093246AE991EE5EF0E0FA
:10222000FE4D0994B0CAAFCAAECAADCAACCAABCAF9
:10223000AACAA9CAA8CAA7CAA6CAA5CAA4CAA3CA1A
:10224000A2CAA1CAA0CA9FCA9ECA9DCA9CCA9BCA4A
:102250009ACA99CA98CA97CA96CA95CA94CA93CA7A
:1022600092CA91CA90CA8FCA8ECA8DCA8CCA8BCAAA
:102270008ACA89CA88CA87CA86CA85CA84CA83CADA
:1022800082CA81CA80CA7FCA7ECA7DCA7CCA7BCA0A
:102290007ACA79CA78CA77CA76CA75CA74CA73CA3A
:1022A00072CA71CA70CA6FCA6ECA6DCA6CCA6BCA6A
:1022B0006ACA69CA68CA67CA66CA65CA64CA63CA9A
:1022C00062CA61CA60CA5FCA5ECA5DCA5CCA5BCACA
:1022D0005ACA59CA58CA57CA56CA55CA54CA53CAFA
:1022E00052CA51CA50CA4FCA4ECA4DCA4CCA4BCA2A
:1022F0004ACA49CA48CA47CA46CA45CA44CA43CA5A
:1023000042CA41CA40CA3FCA3ECA3DCA3CCA3BCA89
:102310003ACA39CA38CA37CA36CA35CA34CA33CAB9
:1023200032CA31CA30CA2FCA2ECA2DCA2CCA2BCAE9
:102330002ACA29CA28CA27CA26CA25CA24CA23CA19
:1023400022CA21CA20CA1FCA1ECA1DCA1CCA1BCA49
:102350001ACA19CA18CA17CA16CA15CA14CA13CA79
:1023600012CA11CA10CA0FCA0ECA0DCA0CCA0BCAA9
:102370000ACA09CA08CA07CA06CA05CA04CA03CAD9
:1023800002CA01CA00CAFFC9FEC9FDC9FCC9FBC90E
:10239000FAC9F9C9F8C9F7C9F6C9F5C9F4C9F3C941
:1023A000F2C9F1C9F0C9EFC9EEC9EDC9ECC9EBC971
:1023B000EAC9E9C9E8C9E7C9E6C9E5C9E4C9E3C9A1
:1023C000E2C9E1C9C2CAC1CAC0CABFCABECABDCA7F
:1023D000BCCABBCABACAB9CAB8CAB7CAB6CAB5CAE9
:1023E000B4CAB3CABCCABBCABACAB9CAB8CAB7CADD
:1023F000B6CAB5CAB4CAB3CAB2CAB1CAB0CAAFCAF9
:10240000AECAADCAC0C9BFC9BEC9BDC9BCC9BBC9B6
:10241000BAC9B9C9B8C9B7C9B6C9B5C96CCA78CA41
:1024200084CA87CAA093276AC093246AE991E03FCF
:1024300008F4A9C9EF70E15EF0E0FD4D0994A1CA6E
:10244000A2C9A1C9A0C99FC99EC99DC99CCA9BC94F
:102450009AC999C998C997C996C995C994C9E0E01C
:10246000E093CA692092FB690895FFFFFFFFFFFF19
:1026000026C04EC050C059C062C069C070C081C1F0
:10261000A8C1DCC1EAC10CC213C221C229C231C2A5
:1026200039C244C270C08AC0C7C013C128C145C1E5
:1026300046C147C148C149C14AC14BC14CC14DC146
:102640004EC14FC150C151C152C153C154C1E2E04A
:10265000E093110B332424C0E0918868F0918968DD
:102660003196E0938868F09389680AC0E0918A689F
:10267000F0918B683196E0938A68F0938B6800C084
:10268000E0918468E395E093846800C0332403C03C
:10269000E3E03E2E00C0E398E998ED98E1E035C212
:1026A0000E94132A00C0ED99F1CF86F73394E2E837
:1026B000FFED0E949616E3E028C2ED99E7CF36F7CA
:1026C0003394EAE9FFED0E949616E4E01EC2ED990C
:1026D000DDCFE6F633940E943F1AE5E016C2ED998D
:1026E000D5CFA6F633940E94441AE6E00EC2ED99C7
:1026F000CDCF2EF4339409F43A94E6E006C2E32DEC
:10270000E43108F4C3CF3092D069E091C869F09108
:10271000C969F695E795F695E795F695E795E21D73
:10272000E001FBEAEF9F1092FE690E01E2EDF9E68F
:10273000CFE02192CA95E9F7E3E1E7C10EF0ED9908
:10274000A5CFE091C869F091C969F695E795F6952E
:10275000E795F695E795E21DE001FBEAEF9F109201
:10276000FF690E01EE27529BEFEFF091E169E093D4
:10277000E169FE13EE9AE998EA98EF98EB98EC98E5
:102780002092D1692092CF69E0918568E395E43683
:1027900050F0E0918468F0918668E0938668EF1BC2
:1027A000E0938768E0E0E0938568E091E369E39572
:1027B000E093E369E7E1A9C1ED994ECFE091D169DA
:1027C000EF3008F053CFF2EDEF0FF9E6F21D319242
:1027D000E25DE093D169E091CF69E325E093CF69B1
:1027E0002EF509F043CFE3E0E093110BE0E8F8E6C3
:1027F000A081B1811196A083B183A281B381A21D72
:10280000B21DA283B383E091C869F091C969F695BE
:10281000E795F695E795F695E795E21DE001FBEA69
:10282000EF9F1092026A0E01E6E16FC1E091C86964
:10283000F091C969F695E795F695E795F695E795D0
:10284000E21DE001FBEAEF9F1092006A0E01E5E154
:102850005CC1ED9B0EF400CFE091C869F091C969AD
:10286000F695E795F695E795F695E795E21DE00173
:10287000FBEAEF9F1092016A0E01E7E146C1E2E038
:10288000E093110B2092C6692092C769ED9B0EF070
:10289000E3CEE091C869F091C969F695E795F695A0
:1028A000E795F695E795E21DE001FBEAEF9F1092B0
:1028B000036A0E0173DAE7E028C1E8E11EC0E9E12E
:1028C00021C0EAE11AC0EBE11DC0ECE116C0EDE168
:1028D00019C0EEE112C0EFE115C0E0E20EC0E1E286
:1028E00011C0E2E20AC0E3E20DC0E4E206C0E5E2A4
:1028F00009C0E6E202C0E4E105C0ED99ADCE330CBB
:1029000030F803C11EF030FCA7CEFFC030FEA4CECD
:10291000FCC0E39AEAE2FFED0E9496160EF0B6CEF6
:10292000C091FB69D0911970EB99D860D3FFC0704A
:10293000D0911870EB99D260E0919068EC3F08F06C
:10294000DB7FD2FDDE7FEA99D0FFCC7FEC9BD1FF0D
:10295000C370EF99CFEFC093FB69529B779998CEE4
:1029600000C0E99AD0912A70C0910A0BCD23D09172
:102970002970CD0FCF70C093FC69C15BDCE0F00122
:10298000CD9F00921C0B10921D0B0F01E091C869A6
:10299000F091C969F695E795F695E795F695E7956F
:1029A000E21DE001FBEAEF9F1092046A0E01E0E0F5
:1029B000E093110BE091FB69E0FF06C0C090E6696F
:1029C000E89AEFE0E0931301E9E09FC0F091FB6922
:1029D000E091E769F1FDE0930208E8E6F1E0E093B9
:1029E0001C0BF0931D0BEAE090C0D0912C70C091AD
:1029F0000A0BCD23D0912B70CD0FCF70C093FD6902
:102A0000CE5AD091FC69CD1BDCE0F001CD9F009245
:102A10001C0B10921D0B0F01E091FB69E2FF06C039
:102A2000C090E869E89AEFE0E0931301EBE06DC035
:102A3000E0EFF0E0E0931C0BF0931D0BECE065C0C1
:102A4000F091FB69E091E969F3FDE0930208E0EEA3
:102A5000F1E0E0931C0BF0931D0BEDE056C0F091FC
:102A6000FB69E091EA69F4FDE0930208EEE04DC0F5
:102A7000F091FB69E091EB69F5FDE0930208EFE06E
:102A800044C0F091FB69E091EC69F6FDE093020827
:102A9000E0E13BC0F091FB69E091ED69F7FDE09367
:102AA0000208E2E0E093110BE1E12FC0E001E091C8
:102AB000C669F091C769F695E795F695E795F6959D
:102AC000E795E21DFBEAEF9FE12DEC51F091FD69E6
:102AD000EF0FE093056A0E01F091FB69FC7F91F026
:102AE000EEEFF9E6C191C783C191C783C191C78356
:102AF000C191C783C191C783C191C783C191C78366
:102B0000C191C7832092FB69C1CDE093CA69AF919F
:102B1000BF91CF91DF91EF91EFBFEF91FF911895AA
:102B2000E1E0FBE6ACE2B1EDD0E0C1E0D583C083EB
:102B3000B183A28326822782208624823A96D39567
:102B4000DA30A1F7099808980B980A98A2C113D017
:102B5000ED91FD91FC83FD91F887FD91F9877BD183
:102B6000EFB7E0FBA3D2E885E03108F0E0E0E05801
:102B7000F0E0F84D0994AD81AA0FAA0FB0E0AC5770
:102B8000BF480895C5E6DBE6CF93DF930E94762D1C
:102B9000DF91CF912A97DBDF8E819F8196FB98276B
:102BA000907409F0BDD08881815041F008F088838D
:102BB0008D81882349F734D144D16BC1F981EA81F1
:102BC00081918C3008F080E090E083519A4D8F9392
:102BD0009F930895F983EA83EBCF0BC00DC011C01A
:102BE0002CC036C03FC042C048C055C05DC063C0A5
:102BF00069C00B807CD0DCCF019079D01190188215
:102C0000E9CF0E94B1269F938F938191982F92953F
:102C10008F709F70092E081A03941F90109C180E35
:102C200065D08191982F92958F709F70092E081A08
:102C30001F90109C180E1882CDCF0E94B1260190D3
:102C40009191091A0394182E109C190E4FD0B8CFE9
:102C50000E94B12601909191091A182E109C190E0C
:102C60001882B8CF91918191FC01AACF9191819165
:102C70000F01FC018D810995A3CF0E94B12601901F
:102C80009191981708F4A6CF0394102C100C100CF7
:102C9000E119F20995CFE89410800B80101460F0D0
:102CA00021F43196319696CF689411900B800114DF
:102CB000C8F7039415C0689411900B80101490F716
:102CC0000A940EC00E94B12601909191091A0394B2
:102CD000182E109C190E0B80101408F407D070CF1A
:102CE00006D0119018820EF475CF62CF012C0B82A2
:102CF000A5E6BBE61D80A10DB21D0C920895F2ED74
:102D0000E6E803C0F2EDE0EB00C08C81853108F00D
:102D100080E0880FE80FF21D91918191FC010895E8
:102D20008E8186F98E8391ED8EE216F491ED82E329
:102D300099838A8391E09883089513D08F770895BB
:102D400010C00FD009F4917008950BD009F493705E
:102D5000089507D009F49770089503D009F49F707F
:102D6000089580911A0B90910A0B89270895E5E642
:102D7000FBE6D091CF6ADF70D395D4FDDA95C09190
:102D8000536AC211D0619AD749F4C191CD17C0914D
:102D9000010ACD7F08F0C260C093010A8FD749F4C1
:102DA000C191CD17C091010ACE7F08F0C160C093D8
:102DB000010A84D749F4C191CD17C091010ACF7E91
:102DC00008F0C061C093010A79D749F4C191CD17C9
:102DD000C091010ACB7F08F0C460C093010A6ED78E
:102DE00031F4C191CD1708F0489A08F4489866D795
:102DF00031F4C191CD1708F00F9A08F40F985ED7FF
:102E000031F4C191CD1708F00E9A08F40E9856D7F8
:102E100031F4C191CD1708F0A89A08F4A898089544
:102E2000ACE6B0E708D08093576A05D0E091566AC7
:102E30008093566A089581E0EE910DD0881FE0F7E7
:102E40000895ACE6B0E780E8ED9105D08795E0F70E
:102E50008093586A0895E7FBEF77E53410F0EE278A
:102E600012C0EF771E2EE770F0E0E657F1430080C6
:102E7000169416941694E2E5F8E6E10DF21DE08151
:102E80000EF4E025E021E1950895010204081020E8
:102E90004080ECE7F0E7ACE7BFEDDAE08191CD915F
:102EA000C2118883E238D1F708951FB6F095F894DF
:102EB0000090546A0F220E2A0092546A1FBE089591
:102EC0001FB6F095F8940090556A0F220E2A0092D2
:102ED000556A1FBE0895E091536AEE230895E0916C
:102EE0003A70E0938506FFB7F894E091536AE211D7
:102EF000EA95E093536AFFBFE1E0E0938606089508
:102F000011C00EC019C021C029C031C039C03FC096
:102F100047C04FC073C074C07EC05CC065C051C0A4
:102F20000EF4EDC001C136F483FDFEC082FDE7C0A2
:102F300080FF90FFF9C0E3C036F483FDF5C082FD49
:102F4000DEC080FF90FFF0C0DAC036F483FDECC035
:102F500082FDD5C081FF90FDE7C0D1C036F483FD6E
:102F6000CEC082FF80FDE0C090FDDEC0C8C036F458
:102F700083FDC5C082FF81FDD7C090FFD5C0BFC013
:102F8000EEF783FF91FDC1C082FFBFC0AFC036F432
:102F900083FF91FDBAC082FFB8C090FFC5C0A6C034
:102FA000EEF783FF91FDB1C082FFAFC090FDBCC0C2
:102FB0009DC0EEF783FF82FFA8C091FD089596D0D3
:102FC000AAC0AEF782FD0895B3E0B823B21183FD25
:102FD000ABC095C066F782FD0895B3E0B823B21187
:102FE00083FDA2C089D09DC016F782FD0895B3E08D
:102FF000B823B21183FD98C076D08DC001D00BC02C
:103000006894E0E1B4FD12C0B6FD15C081FD0895DD
:1030100080FF11C00BC0E894E0E2B5FD07C0B7FD2A
:1030200011C080FD089581FF0DC000C06091B57092
:103030007091B67013C0E0E4B6FD0BC080FF90FF46
:10304000089507C0E0E8B7FD04C081FF90FD089532
:1030500000C06091B3707091B47000C0B0FD0BC03F
:10306000B3FF089583FF91FD0895FE2F0E94672806
:103070000E94401527C0B1FD0FC00E94551509F4EC
:1030800091FD08953CD062957295EFB7E894E6FF04
:1030900068940E94401516C00E94551511F491FFC6
:1030A000B3FD089541D00E943E1509C08091566A33
:1030B0009091546AA985B091596AB3F90895E0E0F6
:1030C000FFE305C0E091596A0894EE1FF3E0EF2397
:1030D000B091596AF095BF23BE2BE093596A0895C9
:1030E0002CDE69F008952CDE51F008952ADE39F0C7
:1030F00008952BDE21F008952CDE09F00895E0E418
:10310000EF8308951ADE81F008951ADE69F00895BC
:1031100018DE51F0089519DE39F008951ADE21F015
:1031200008951BDE09F008952F82089500000626F9
:10313000820006267F0001000000010F010001004F
:103140000000010201010401080F0100010401084F
:103150000001000002008102108102FF210703A08C
:1031600002FE810701FF00000200F10210F102FFE0
:10317000210703A000000101140211F102FF210741
:1031800002800000080101043010010F0100080155
:1031900001043010010408080F01000001000000C4
:1031A000090F010450200702FF000100000008047D
:1031B0000100080001000108010253110801010487
:1031C00006010704C004C040090F010702FF000008
:1031D000010F01010101045020046010090F0107D3
:1031E00002FF00000B03010480400A00010702FFF8
:1031F0000000080401010F0301040108010101019D
:10320000080705FF000008000100010F0A01000A7D
:103210000702FF000200F102FFB90200B90702FF36
:10322000000001000100010F010100130702FF006F
:10323000010F01010001010F010100110704FF004E
:10324000010F01010001010F01010001010F010146
:10325000000F0706FF0001000100010001080F0137
:103260000801010702FF0000010011080F01080119
:10327000010702FF000008000100010F1401000017
:10328000000001000000D136D13AD142D154D168BA
:10329000D176D184D18ED1A0D1AED1B6D1D0D1F258
:1032A000D20AD214D226D230D240D25AD268D27A9E
:1032B000D136D13ED14CD19CD19CD19CD19CD19CBA
:1032C000D1AAD1B2D1E4D1E4D206D222D222D256AE
:1032D000D256D256D276D276D28220925A6A209292
:1032E0005B6A089504D0FE2FE0E2EF1B0895E091A1
:1032F0005B6AF0915A6AEF1B08F4E1950895E0913A
:103300005B6AF0915A6A8894EF1308940895C0910B
:103310005B6AC45AD0E0D549B993E993F993A9936C
:10332000CC55C03208F0CC27C0935B6A0895C09199
:103330005A6AC45AD0E0D549B991E991F991A99155
:10334000CC55C03208F0CC27C0935A6A089590E358
:10335000889410C0A881A823A81711F492E106C090
:10336000A881A823A817B1F393E100C0A881A817EA
:10337000A9F00894A0910210A1FDFCCFA0FDFACF06
:10338000ADE9A4BF9093001008F48993A4BFA1E015
:10339000A0930010A0910210A1FDFCCF089598D039
:1033A00089D009D00E94FE16E0934B6AF0934C6AD4
:1033B0002092466A089582E010904E6800904F680F
:1033C000F0914C68E0914D68EF01CD2BD9F4E0917C
:1033D0001070F4E6EF9FF0E0E211F0ECE0910F7076
:1033E000EF770E0E121C1F2A81E0E0910070EF773C
:1033F000F0E0C0911970C5FF05C0F0910D70E0912B
:103400000E70F06CE0930E6AF0930F6A0092106AEF
:103410001092116A0128E0E0F0E20210EF2F45DD82
:10342000CEEFD4E19DCF1BD1E091466A2092466A4F
:10343000EE3020F4F0E0E25EF54D099408950CC002
:103440000DC00EC00FC010C0089508950FC01EC05B
:1034500029C010C013C016C00C946E150C947015C2
:103460000C9474150C947E150C947915F8946FDFF8
:103470000C946E15A0E0B3E48CE15EC0A0E0B8E966
:1034800088E25AC0A2E0B0E080E856C0F89481E03B
:10349000CEEFD4E165DFECE9F4ED3DC0000111129F
:1034A00013141D00EAEAF4ED36C000020506090A0D
:1034B00037383900D4D004D0D6D002D0D8D000C00C
:1034C000B0E078D0B395A091496ABA17D1F70895C2
:1034D000E091FF14E03069F0EF3F09F038DFBFD032
:1034E00009D0C1D007D0C3D005D0CFEFD4E180E060
:1034F00037DF0895B0E0A89506D0B395A091496A4A
:10350000BA17D1F708953AD028F4D091476ACE2F50
:103510008A2F20CF0895F894A191EF93FF9395D02F
:10352000A895FF91EF91B191B15010F40C946E15E4
:10353000EF93FF93E8DFF5CFF8948F93BF9385D097
:10354000A895BF918F91B3958A9509F40C946E1547
:103550008F93BF93D8DFF5CFE091476AE431EEE077
:10356000EB0751F0E0910B70F0910C70EF1721F028
:10357000EF91EF9198940895189408954AD0339656
:103580000994F0DF46D03196099426F0E5DF41D06A
:1035900032960994E1DFAF93F4DFEF91E3FB0E94F1
:1035A0008015E095AE23E0950EF0EE27AE2B31D0DE
:1035B000329609942ED030960994A0E027C0EA8173
:1035C000A98121C0EA81F091476AA081F091486AFF
:1035D000A08319C0EA81F091486AA08114C0EA81F1
:1035E000F091486AB091476A92DE0DC0E981FA8194
:1035F000A08109C0E981FA81A08305C00F92C89516
:10360000A02D0F9000C018940894089518948894E1
:103610000895CB2FD091496ACD1778F4D0E0CC0F24
:10362000DD1FCC0FDD1FF0914A6ADF0FE881E43126
:1036300049F0F0E0E752F04D0895C0E0D4EEE9ED36
:10364000FFE20895E981FA810895B0E0B03099F47D
:10365000A03029F0A13039F0A23049F00CC0A4ED1F
:10366000B0EEF0E00BC0ADE7B4EEF0E007C0A1E0D3
:10367000B6EEF1E003C0A0E0B0EEF0E0A093496A3E
:10368000B0934A6AFC5EF093476AF45AF093486A32
:10369000089503C007C009C012C0A0910014A093F0
:1036A0000070B1CFA0910070AECFAA2339F032F0F4
:1036B000E0E0F0E7B091476A2ADEA5CF7ECFE0E0F8
:1036C000A3E0A1CF7ACF02C003C077CFADE09BCFFC
:1036D0000E94F41219F4A093466A95CF6ECF03C0EE
:1036E00007C009C015C0A0910B14A0930B708BCF1D
:1036F000A0910B7088CFAF3F11F4A0910C70A03F48
:1037000030F4EBE0F0E7B091476A01DE7CCF55CFB3
:10371000EBE0A1E078CF03C007C009C011C0A091C1
:103720000C14A0930C706FCFA0910C706CCFA03FC5
:1037300030F4ECE0F0E7B091476AE9DD64CF3DCFCB
:10374000ECE0A1E060CF39CF06C037CF36CF35CF20
:1037500005C033CF32CFE1E0F1E950CFE0E0F1E94D
:103760004DCF0895D7E817C218D2C7D116D2E0912D
:103770000210E1FDFACFC3DDC0F7D9DDC081CA1761
:10378000B1F3A083FB2FCDE9D3E1C4BFD0930010E8
:10379000A083D1E0C4BFD0930010D1E0D093041037
:1037A000D0930310E2CF0C947C2E82E390E00E9431
:1037B000B52D0E94C225F9CFF0D10E9479170E9441
:1037C000622E9BD1F9CF88EE93E00E94B52D41D2B5
:1037D0000E945216FCCF0C94B7260C9414140C942F
:1037E0001E15E0919068E7FF05C0EC3F30F4E091D2
:1037F0000A0BEF73EA95E093906808950E946F2793
:103800000E9478170C94DF14E091E3692092E36939
:10381000E093E2690895FCEDE8EADAE6C1E982E1C5
:103820000E948A1514D037D03FD047D04FD057D000
:103830005FD067D06FD011272227D9E0C9E9C093A4
:10384000CD6AD093CE6A089578940C942E2CE1E939
:10385000FAE6E093CA6AF093CB6A08950E94B22B0D
:103860002092D16A2092D26A2092D36A1D7FE09181
:10387000D16AF091D26AC091D36A3196C21D11FD0E
:10388000EFCF2223D1F3E093D16AF093D26AC093B1
:10389000D36A33D1ECCFE2E5FCE2E0933F69F093E9
:1038A0003E6908950C94B42BEBE5FCE2E0935F696C
:1038B000F0935E6908950C94D32BE4E6FCE2E09368
:1038C0007F69F0937E6908950C94D52BEDE6FCE2B8
:1038D000E0938169F09380690895A3E924C0E6E745
:1038E000FCE2E0938369F09382690895A4E91BC028
:1038F000EFE7FCE2E093A369F093A26908950C94CA
:10390000DC2BE8E8FCE2E093A569F093A469089554
:10391000A6E909C0E1E9FCE2E093C569F093C46956
:1039200008950C94E32B0C94301710FD82C0F09393
:10393000DC6AFFB7F093DB6A1160E093DD6AD09335
:10394000DE6AC093DF6AB093E06AA093E16A909365
:10395000E26A8093E36A1092E46A0092E56AC09199
:10396000CF6AC395C093CF6A09F41860CF7009F489
:103970001460C0FD14C01061C091CD6AD091CE6AB0
:10398000C15015F41062C97F10F41064C979D04099
:1039900010F41068D970C093CD6AD093CE6A17FD29
:1039A00058D079D00E94EB2B14FD0E94ED2B12FD14
:1039B0000E94EF2B16FD0E94F12B13FD0E94FE2B9F
:1039C00017FD0E94042C14FF1BC0DAE6C7EAA1E031
:1039D000E881F981319788F071F42A2BE883F98323
:1039E000EA81FB81FE2B49F0FB810180A0950A2230
:1039F000A095018202C0E883F9832496AA0F41F7BB
:103A00000090E56A1090E46A8091E36A9091E26A1E
:103A1000A091E16AB091E06AC091DF6AD091DE6A5C
:103A2000E091DD6A1270F091DB6AFFBFF091DC6A11
:103A30000895F894E1E0F1E00E943B2FFFEF319709
:103A4000F1F7E0E0F1E00E943B2FF0E43197F1F76D
:103A5000F0CFE091D26AF091D36AEE0FFF1FEBE84E
:103A6000FE9F000C111CE4E6E119E093D06A12609D
:103A7000C091D56AD091D66AC093D76AD093D86ADC
:103A8000D695C795D695C795C093D46A2092D66A25
:103A90002092D56A0895E091CF6AEF70E093CC6AE6
:103AA000EE0FF0E0EA5AF24D099408950C94552D6A
:103AB0000C94552D0C94552D0C94552D0C94552D7E
:103AC0000C94552D0C94552D0C94552D0C94552D6E
:103AD0000C94552D0C94552D0C94552D0C94552D5E
:103AE0000C94552D0C94552D0C94552DF091C76ABE
:103AF000FF0F11F02F1708F40895E091D56AF091A7
:103B0000D66A3196E093D56AF093D66AC091CA6AB4
:103B1000D091CB6AEDB7FEB7E993F883E0E2F22FDC
:103B2000C0E8FF0F30F019F0C695E450D1F7CC276C
:103B3000EE27C093C76AE093C96AE695E093C86A26
:103B4000DAE6C1E9CE0FD21DC093CA6AD093CB6A20
:103B5000E991F881CFB7F894EDBFFEBFCFBF0895CC
:103B600091E0899FC00101C09927C3EADAE6B091CC
:103B7000C96ACB0FD21DBFB7F89488839983D091BF
:103B8000C76AD0952D23BFBFB8CF07D0B6CF03D01B
:103B9000B4CFD091C76A2D2B0895D091C76AD09524
:103BA0002D230895208221820895689401C0E8940D
:103BB000D091C76ABFB7F894C081CC2321F0CE7FE3
:103BC000C083BFBF0895C181CD2BC183BFBF0EF09D
:103BD000DCCFCBCFBFB7F894C191D081DD2321F4E6
:103BE000C160C293BFBF089520822292BFBF0DC0A3
:103BF000BFB7F894D081D260D193D081DD2311F486
:103C0000BFBF08952082BFBF00C0E3EAFAE6CD2F10
:103C10003496CC0F41F0E0F7F89421922192219252
:103C20002192BFBFF6CFB7CF20820895BFB7F894D7
:103C3000A081AE7FA083BFBF0895F8DFB8CFE1E0D9
:103C4000F1E00E943B2F0895E0E0F1E00E943B2F5D
:103C50000895C9EADBE6E4E9FCED0C2E9FEFA191A3
:103C6000B191BF3F81F011968FEF83951D90112088
:103C7000E1F3821183958993981788F38211982F25
:103C800082110C2EECCF9093D96A0894C009C0938E
:103C9000DA6A08950069206940696069806982690B
:103CA0008469A469A669FFFF1F693D695D697D6933
:103CB0007F698169A169A369C3690895C091AE70E4
:103CC000CC230895FBDF61F0E091FE6AE2110895D4
:103CD000E091FF6AE2110895EFEFE093FF6A22603E
:103CE0000895F091AC7002C0F091AD70FE23F21116
:103CF0000895FF91FF91089516D01DD00AD023D0CA
:103D00002BD034D03DD046D04FD058D061D06AD0DF
:103D1000F3CFE4E0E6DF9DD0E3E275D0E0918B6B7A
:103D2000E7FDEFE770C0E1E0DCDF93D0E4E26BD0C9
:103D3000E091976868C0E2E0D4DF8BD0E5E263D021
:103D4000E091516860C0E0E8CCDF83D0E0E65BD072
:103D5000E0915268EF7157C0E1E0C6DF7AD0E1E64A
:103D600052D0E0915268F091536845C0E2E0BCDF68
:103D700070D0E2E648D0E0915368F09154683BC0BF
:103D8000E4E0B2DF66D0E3E63ED0E0915468F09123
:103D9000556831C0E8E0A8DF5CD0E4E634D0E091BB
:103DA0005568F091566827C0E0E19EDF52D0E5E605
:103DB0002AD0E0915668F09157681DC0E0E294DF88
:103DC00048D0E6E620D0E0915768F091586813C0DB
:103DD000E0E48ADF3ED0E7E616D0E0915868F09143
:103DE000596809C0E0E880DF34D0E8E60CD0E09103
:103DF0005968F0E000C0E07EE295E695FF0FFF0F06
:103E0000FF0FEF2B00C0E093006B0BD00AD009D05E
:103E100008D007D006D005D004D0F0E4E0E40C943C
:103E20006617E091006BE695E093006BF0ECE0E83C
:103E300008F4E0640E94661705D0F0E8E0E00E9414
:103E4000661700C0E091AE70F0E0FC963197F1F794
:103E50000895EFEFE093FE6A84E190E00E94B52DB3
:103E60002092FE6A0E94C52D2092FF6A089508954F
:103E7000E2E0F2E000C0EF23F0950090936B0F2298
:103E8000E02906C0E0E004C0EFEF02C0E1E000C0BE
:103E9000E093936B00C0E091936B0C940417EF23B5
:103EA000F0950090946B0F22E02908C0E0E006C076
:103EB000E5E504C0EFEF02C0E3E000C0E093946BDF
:103EC00000C0E091946B0C940217310B00000102CA
:103ED00001310080826A0001004040310080000012
:103EE0000002310B0000010201310083826A0001EF
:103EF00000404031008300000002310B000001014E
:103F000002310080826A00010040403100800000E0
:103F10000002310B0000010102310083826A0001BE
:103F200000404031008300000002110B0000010539
:103F300040110183846A0001014240110081A56B98
:103F40000001004040110081000000023103000028
:103F5000010304310080A16B00010040403100806A
:103F60000000000631030000010403310080A36B50
:103F70000001004040310080000000062A28292C62
:103F8000000011030000011F401100834D6A000171
:103F90000040403100830000000211030000011FB7
:103FA000401100834F6A000100404031008300004F
:103FB000000203CB02CB01CB00CBFFCA00CBFDCA72
:103FC000FCCA00CB07CB0BCBFACAF7CA0FCBF5CA9A
:103FD000F4CAF3CA0BCB0ECBF0CAEFCAEECAEDCAD5
:103FE000ECCAFFFFFFFFFFFFFFFFFFFFFFFFFFFF29
:1040000014492B7F0801017F080802FF080803FFFD
:1040100008FF04FF088005FF0423000014622B0042
:1040200008010603086407FF081008FF04040000E5
:104030000800090008000A00146F2BFF148B2BFFE7
:1040400008C30DFF08E80EFF08000FFF080010FF6F
:10405000080011FF080012FF0800130008001400F8
:104060000000000000000000080017FF089E181163
:10407000080A1911101A7000040000FF04FF00FF65
:104080000000000000000000000000000000000030
:104090000000000000000000000000000000000020
:1040A0000000000000000000000000000000000010
:1040B00000000000000000000804290F08002A0F7B
:1040C00008042B0F08002C0F08FF2DFF080F2EFFF0
:1040D00000000000080030070800310F088032FFA0
:1040E00000000000086434FF084135FF08B436FFC3
:1040F000088037FF088038FF088039FF08283AFF1A
:1041000008023B0008A03CFF08033D7F08073E7FF4
:10411000080C3F7F0810407F0815417F0819427F37
:10412000081E437F0822447F0827457F082B467FCF
:104130000830477F0834487F0839497F083D4A7F67
:1041400008424B7F08464C7F084B4D7F084F4E7FFF
:1041500008544F7F0858507F085D517F0861527F97
:104160000866537F086A547F086F557F0873567F2F
:104170000878577F087E587F000000000406000082
:104180000C4068000C4168000C4268000C43680059
:104190000C4468000C4568000C4668000C47680039
:1041A00008005AFF08005BFF04010000040900003A
:1041B0000C01A1000C0091000C0191000C00910079
:1041C0000C1180000C10800014A32BFF14A72BFFF0
:1041D0000C1717000CFF14000CFE140008015CFF04
:1041E00008025DFF08035EFF08045FFF080560FF2B
:1041F000080661FF080762FF08FF63FF08FF64FF0E
:1042000008FF65FF08FF66FF08FF67FF08FF68FFFC
:1042100008FF69FF08086AFF08096BFF083D6CFF8B
:10422000083E6DFF083F6EFF08406FFF084170FFBA
:10423000084271FF084372FF084473FF08FF74FFD0
:1042400008FF75FF08FF76FF08FF77FF08FF78FF7C
:1042500008FF79FF08FF7AFF08FF7BFF08FF7CFF5C
:1042600008FF7DFF08FF7EFF08FF7FFF08FF80FF3C
:1042700008FF81FF0000820000008300080084FF27
:10428000080285FF080286FF08FF87FF080088FFF5
:10429000080289FF08038AFF08FF8BFF08008CFFD4
:1042A00008028DFF08048EFF08FF8FFF080090FFB3
:1042B000080291FF080592FF08FF93FF08FF94FF93
:1042C000080095FF080096FF08FF97FF08FF98FF7A
:1042D000080099FF08009AFF08FF9BFF08FF9CFF5A
:1042E00008009DFF08009EFF08FF9FFF08FFA0FF3A
:1042F0000800A1FF0800A2FF08FFA3FF08FFA4FF1A
:104300000800A5FF0800A6FF08FFA7FF0808A8FFF0
:104310000800A9FF080AAAFF08FFABFF0887ACFF47
:104320000803ADFF0800AEFF0820AFFF08E0B0FFB4
:104330000880B1FF0880B2FF0825B3FF083FB4FF33
:104340000853B5FF0833B6FF10746B000455000026
:10440000040900000401000000000000000000009A
:104410000C4368000C4268000C4168000C406800C6
:104420000C4768000C4668000C4568000C446800A6
:104430000C0875000C0975000C0A75000C0B750052
:104440000C0C75000C0D75000C0E75000C0F750032
:104450000C1075000C1175000C1275000C13750012
:104460000C1475000C1575000C1675000C177500F2
:104470000C1875000C1975000C1A75000C1B7500D2
:104480000C1C75000C1D75000C1E75000C1F7500B2
:104490000C2075000C2175000C2275000C23750092
:1044A0000C2475000C2575000C2675000C27750072
:1044B0000C2875000C2975000C2A75000C2B750052
:1044C0000C2C75000C2D75000C2E75000C2F750032
:1044D0000C3075000C3175000C3275000C33750012
:1044E0000C3475000C3575000C3675000C397500F0
:1044F0000C3A75000C1A75000C1B75000C8F6A00C5
:104500000C906A00000000000000000000000000A5
:104510000000000000000000000000000C9A68008D
:104520000C9B68000C9C68000C9D68000CA2680045
:104530000CA368000C8068000C8168000C82680085
:104540000C8368000C8868000C8968000C8A68007D
:104550000C8B68000C8C68000C8D68000C066A00DF
:104560000C076A000C086A000C096A000C0A6A0051
:104570000C0B6A000C0C6A000C0D6A000CD0690070
:104580000CE169000CE269000CA76B000CA86B0041
:104590000C876B000C0268000C0368000C046800B8
:1045A0000C0568000C0068000C0168000CFD14008C
:1045B0000CA96B000CAA6B000CAB6B000CAC6B0075
:1045C0000CAD6B000CAE6B000CAF6B000CB06B0055
:1045D0000CB16B000C2168000C2068000C226800F4
:1045E0000C0E6A000C0F6A000C106A000C116A00B5
:1045F00004550000FFFFFFFFFFFFFFFFFFFFFFFF6E
:1046000004550000FFFFFFFFFFFFFFFFFFFFFFFF5D
:00000001FF
; 
; *** EOF 
