@ba23 ; Affinity 
@bb01 ; MemBank 
@bc03 ; Command 
:020000020C00F0
:100000003AC1089581E084C082E082C083E080C06C
:1000100084E07EC085E07CC0E5D0E8C087E078C0A1
:1000200088E076C089E074C08AE072C08BE070C05E
:100030008CE06EC08DE06CC06EC000008AC0000015
:1000400080E166C081E164C082E162C083E160C09A
:1000500084E15EC085E15CC086E15AC087E158C09A
:1000600088E156C0F8C00000C3C000008BE150C05A
:100070008CE14EC08DE14CC08DE14AC08FE148C09B
:1000800080E246C081E244C082E242C0EEC000008D
:1001000001003FD202010000BC74DE67AEDFC9B659
:10011000A895F4D1FFCF0FB73F014001E091776A76
:10012000E395EF3008F0EE27E093776AF0E0E656CB
:10013000FF4E099447C252C25BC28BC256C35BC317
:1001400060C365C36AC36FC374C379C37EC383C30B
:100150008AC3E89B06C0E89820921301C092020867
:1001600018950091160B0093160BFF93EF93EFB7C2
:10017000EF93DF93CF93BF93AF93E0911C0BF0917C
:100180001D0BA091C669B091C769E093C669F09351
:10019000C769EA1BE093C869FB0BF093C9696894CF
:1001A000B2E0E037FB0708F4ED9AB3E0EC30FB0770
:1001B00030F0E894B4E0E833FB0708F4ED9AF091EE
:1001C000140BE0E1A091E169EE9BFE27EE98E3E0DD
:1001D000A211E4E0E0933302F093140BE091CA69BA
:1001E000FEE1099401E00093530118950C94642AF0
:1001F0003F01E091636AF091646A009110060193F7
:10020000009111060083E091656AF091666A0191A0
:1002100000930C06019100930806019100930906D2
:100220000191009300060191009301060191009352
:10023000B00001910093636A01910093646A019197
:1002400000930B06019100930A06E093656AF09310
:10025000666AF301189500E00093860601E00093BA
:10026000870604E10093396A18950FB720920310AE
:1002700021600FBF1895A895F89422242DBAE8EDB7
:10028000E0933400E5E8E0930110EFE1F9E6EDBF1B
:10029000FEBFE0E0F9E6C8E8DCE021922197E9F74B
:1002A00020922508A2E4A0931202AFE4A0931302C7
:1002B000A3E0A0933302A8E0A0935704A4E0A09386
:1002C0007104A0937204A09375040D98059A0C987C
:1002D000049A4F9A47984F98479A47986598699A11
:1002E0006A9A61986298A4E0A0935304A09373045F
:1002F000A0937404A0E0A093E705A1E0A093030AF3
:10030000A1E0A093000AE0E0FBE0208221822286A7
:100310002386A0EEBEE22486B587A1E0A683A1E0F5
:10032000A583A3E0A083E0E1FBE02082A2E0A1831B
:10033000A1E4A483A1E0A683A583A3E0A083A3E016
:10034000A0932002A4E0A0932102E1E0E093C00189
:10035000E3E4E093C901EEEEE093CB01E1E0E0934A
:10036000C801A0E1A0931102E0E8FBE0A2E0A093A5
:100370003702A0933802A4E0A08BA18BA1E8A0874C
:10038000A187E0E8FBE0B8EDA0E0A183A0E0A283B4
:10039000A3E3B0933400A28BAFEFA2A723A6A6A736
:1003A00027A6A0A7A1A7A4A7A5A7A685A0FFFDCFC4
:1003B000C0910614A1E0C13009F4A3E0C23009F4F1
:1003C000A9E0B0933400A083A0915101A0FDFCCF1F
:1003D000A9E1A0935001A1E0A0935301A093520181
:1003E000A3E8A093B000A3E8A093B400A3E8A0936F
:1003F000B200E0E0F6E0A1E1A083A0E0A183ABE0E1
:10040000A283A0E0A383A0E0A483A0E0A0930506BC
:10041000A2E0A087A1E0A187AFEFA0938506A4E2A8
:10042000A0938206A1E0A0938606A7E1A093800690
:10043000A4E0A0937604A1E4A093A006AFEF2092DD
:10044000A206A093A3060E94092DE8EDE4BFE9E00F
:10045000E09300010E9482200E94DD1D0E94FE2C7C
:100460000E94FE2C0E9452270E94B4277BD083D486
:100470000E94781AC0D60E9471290E94DA290E942F
:10048000262C0E94E4230E94FE2CE1E0E0935068B9
:1004900074D3EFEFE093060BE093160BE093530158
:1004A000E09304100C94F3290895E0E003C0E0E128
:1004B00001C0EFEFE4990BC0E095E093A80B209208
:1004C000A90BEFEFE093AC0BE093AD0B0AC0E09506
:1004D000E093AC0B2092AD0BEFEFE093A80BE09311
:1004E000A90BEFEFE093AA0B2092AB0BE093AE0BBE
:1004F0002092AF0BE1E0E093840B089500240A946E
:10050000E0E8FBE000A601A604A605A6EACF0024C9
:10051000E0E8FBE000A601A604A605A6E2CFE09174
:100520002F70E1FF03C000C0E0E001C0E1E8E0930C
:10053000880BE093890B0895E1E0F2E02092A80B8C
:100540002092A90B2092AC0BE093AD0B2092AA0B4A
:10055000E093AB0B2092AE0BF093AF0BE1E0E09396
:10056000840B08954F9A479A0E948F122CBAE0E0AC
:1005700005D0E3E6FBE6C0E8D5E7BBC2FE2FFF7778
:1005800029F0EA95FA9511F4E29A01C0E298E09315
:100590006C6A0895E0916A6AEE230895E09108700C
:1005A000E0939A680895E0916C6AE078E7CFE59966
:1005B00003C0E59AECE002C0E598EDE0E093776ACD
:1005C000089508952092776A99DFE0910770F0E32B
:1005D000EF9FE0ECF3E0E00DF11D61C1E1E0E0939D
:1005E000776AE1996198E19B6298E0ECF3E057C18A
:1005F000E2E0E093776A61986298E39927C0E0911E
:10060000786AF4E70090796A10907A6AF0810F1A9C
:100610001208F091686A0F0E121C0092796A10920B
:100620007A6A0F2EF4E70192E093786A2092050629
:10063000E19904C0E19AE8E5FAED03C0E198E8E841
:10064000FAED00903C6A02FE7896CFD2E0ECF3E03F
:1006500026C1E091716AF091726AF7FF05C0F095CA
:10066000E195FF4FF7FDFFE7EE0FFF1F0F01E09150
:100670002E70E770E25CF0E0FC4E099407C009C000
:100680000CC011C014C01AC020C029C0F001889449
:1006900031C0F001EE0FF21D2DC0F0011694079449
:1006A000E00DF11D27C0F001E00DF11D23C0F001A8
:1006B000E00DF11DF8F0E00DF11D1CC0F001EE0F92
:1006C000FF1FC0F0EE0FFF1F15C0F001EE0FFF1F60
:1006D00088F0EE0FFF1F70F0E00DF11D0BC0F00170
:1006E000EE0FFF1F38F00F01EE0FFF1F18F0E00DA7
:1006F000F11D00C008F4FFEFF093696AE0912D70DE
:10070000E095E6950E2E0694E00D0694E00DE05F70
:10071000EF9FF001EE0FFF1F08F4FFEFFF2321F41E
:10072000E091696AE211F1E0E091686AF093686A29
:10073000FE0FF795E0916A6AEE2321F0FE1779F03B
:1007400050F114C02092686A2092696AEFEFE0933A
:10075000776A2092676AA9DEE0ECF3E0A0C0E0913E
:10076000676A0090327002FCE69529C0E0919B68B0
:10077000E211EA95E0939B68E091676AE211EA95DD
:10078000E093676A0090327000FCE69501FCE69504
:1007900002FCE69514C0529902C0779B07C0E09115
:1007A0009B68E03F08F4E395E0939B68E091676AFB
:1007B000E93008F4E395E093676A01C0E0E0619AEC
:1007C000629AEB51F0E0FC4E09943FC038C031C052
:1007D0002AC023C01CC015C00EC007C000C0E3E083
:1007E000E093776A48D0E4E649C0E4E0E093776AB2
:1007F00042D0E8E743C0E5E0E093776A3CD0ECE81C
:100800003DC0E6E0E093776A36D0E0EA37C0E7E043
:10081000E093776A30D0E4EB31C0E8E0E093776AA8
:100820002AD0E8EC2BC0E9E0E093776A24D0ECED25
:1008300025C0EAE0E093776A1ED0E6EE1FC0EBE049
:10084000E093776A18D0E0EF19C0EFEFE093776A92
:1008500012D0EAEF13C0EFEFE093776AEFEF2CDEF0
:10086000EFEFFFEF19C0EFEFE093776AEFEF2FDEC6
:10087000EFEFFFEF11C0E0919B681CCEF0916A6A28
:100880000090307000FEF69501FEF69502FEF6959A
:10089000EF0F08F4EFEFFCE0EF9FF00100C0E093F2
:1008A0000C0BF0930D0BE1E0E093060B0401F30158
:1008B0000FBF1895E6E000902F7000FEE6950090BF
:1008C0003C6A02FEE695E6700090C16A0E220210B4
:1008D0003BC0E09B90913770E09990913870E09127
:1008E0006A6AEE2389F1E091696AE99F0894001C25
:1008F000111C80E0881F90912F7092FD000C92FDDA
:10090000111C92FD881FE0E9F8E6A081B181C28147
:10091000D381E09B05C0A019B109C80BD20904C05E
:10092000A00DB11DC81FD21DA083B183C283D38384
:10093000A481B581C681D781A00DB11DC81FD21D6C
:10094000A483B583C683D783C0916D6AD0913C6A76
:10095000E0916B6AF0916C6ACF019827E89497FD5B
:10096000689497FDF078CF018F779F77E299CC2735
:10097000891721F49030A9F0891789F040F0D5FD4E
:10098000C0E0C150B0F5C0910370EA950BC0D4FD32
:10099000C0E0C15070F5C0910270E39503C0CC2750
:1009A00001C0EF2FE7FFE09AE7FDE098E0936B6A64
:1009B000EF77E0936A6A09F0E2E00EF4E061E09B11
:1009C000E160F091E169F0FDE460E09BF095F0FFFB
:1009D000E860FFE10E949A25F0E0E0FDF160E3FDB0
:1009E000F260E4FDF860F0936F6BE099E49AE09BAD
:1009F000E498C0936D6A0895E0E9F8E60580A68161
:100A0000B781000CAA1FBB1F000CAA1FBB1F000C44
:100A1000AA1FBB1F02101196A087B18724822582CE
:100A200026822782B695A795B0913970AB9FD001E9
:100A3000CFEFAA0FBB1F30F0AA0FB21D18F0ACEE1B
:100A4000AB9FC12DE3E6FBE663D0B0939C68E091D9
:100A50009A68E211EA95E0939A68E211EE13A3DD39
:100A60000895F89482D0F89492D00C949516F89446
:100A700072D083D00C9495160E940D2DF894A895F1
:100A8000FFCF0C949716E770F0E0EE56F545E08145
:100A900008950102040810204080019009928A956F
:100AA000E1F7089501901990011411F48A95D1F796
:100AB000089529928A95E9F70895E0E0FFE8099002
:100AC000E025E0818A95D9F7EE230895799FE0012A
:100AD000689FD001699FB00DC11DD21D789FB00DD8
:100AE000C11DD21D089580E406C080E204C080E1EB
:100AF00002C088E000C0C083D18382832382248225
:100B00002582D7CF11D00BC00FD007C00DD003C0A6
:100B10000BD0AA0FBB1FAA0FBB1FAA0FBB1FAA0F88
:100B2000BB1FAA0FBB1F0895B381A081AB0FB1817A
:100B3000B21DDC91CC93A481B581AD1BB209AC0F81
:100B4000B21DA483B583C281D381D395DC1708F08D
:100B5000DD27D3830895C0E0D8E6AAE1B0E01FC046
:100B6000C0E0D8E6AEE1B0E027C0C0E0D8E680E45F
:100B7000A0DFEFEFE0931F680895C0E4D8E6AAE392
:100B8000B0E00DC0C0E4D8E6AEE3B0E015C0C0E40C
:100B9000D8E680E88EDFEFEFE0937F6808950E944B
:100BA0005716F001A095B095C095D095A083B1835C
:100BB000C283D383248208950E945716F001808354
:100BC0000895E091636AF091646AEF2B0895CF93E2
:100BD000C091636AC21106C0C091646AC21102C0AA
:100BE000CF9103C0CF9188940895CF93C2E0C09372
:100BF0000A06C1E0C0930D06C191C0930006C191E1
:100C0000C0930206C191C0930306C191C09304062C
:100C1000C191C0930C06C191C0930806C191C093C5
:100C20000906C191C0930006C191C0930106C1910C
:100C3000C093B000C191C093636AC191C093646ACC
:100C4000C191C0930B06C191C0930A06E093656AF7
:100C5000F093666ACF910894089576956795769596
:100C60006795769567957695679580910611909131
:100C70000711861B970B609104117091051126DFF7
:100C8000C695B795C695B795C695B795C695B795C8
:100C90007C2F6B2F08950C9410000C9411000C9471
:100CA00012000C9413000C9414000C9415000C9476
:100CB00016000C9417000C9418000C9419000C9456
:100CC0001A000C941B000C941C000C941D000C9436
:100CD0001E000C941F000C9420000C9421000C9416
:100CE00022000C9423000C9424000C9425000C94F6
:100CF00026000C9427000C9428000C9429000C94D6
:100D00002A000C942B000C942C000C942D000C94B5
:100D10002E000C942F000C9430000C9431000C9495
:100D200032000C9433000C9434000C9435000C9475
:100D300036000C9437000C9438000C9439000C9455
:100D40003A000C943B000C943C000C943D000C9435
:100D50003E000C943F000C9440000C9441000C9415
:100D600042000C9443000C9444000C9445000C94F5
:100D700046000C944700E7E5FBE6C0E0D5E7B5DEAA
:100D8000EBE4FBE6C0E2D5E7B0DEE1E5FBE6C0E47C
:100D9000D5E7ABDEEDE5FBE6C0E6D5E7A6CE0895E8
:100DA000F894E091266A2092266A7894E03009F45B
:100DB0000895ED3208F078CBC091246AD9E6EB5162
:100DC000F0E0F94E09950C9413176ECBEAC014C1EC
:100DD00019C16ACB69CB68CB67CB66CB3FC153C126
:100DE0006FC17DC190C1A3C1B6C1C9C1DCC1EFC192
:100DF000B6C05ACB59CB58CB57CB56CB55CB54CB8F
:100E000053CB52CB51CB50CBBAC04ECB4DCB4CCBAE
:100E10004BCBB4C006C205C204C203C202C200C2A8
:100E20001CC200C20895A895F89460917B6B7091E4
:100E30007C6B789412DFEB01CF5DD040E7E5FBE6F9
:100E400063DEB0936E6B6894E091E169E0FDE89435
:100E5000D091776BC091786BC7FF05C0C095D195D5
:100E6000CF4FC7FDCFE7DD0FCC1FEBE4FBE64CDE39
:100E700016F0B0937D6B16F4B0937E6BD091796BC6
:100E8000C0917A6BC7FF05C0C095D195CF4FC7FD04
:100E9000CFE7DD0FCC1FE1E5FBE636DE16F4B093BD
:100EA0007D6B16F0B0937E6BA0917D6BAB0FA79519
:100EB000A093E469A25308F4A0E0A093706BA09102
:100EC0007D6BB0917E6BAB1BA058A0937F6BC091E4
:100ED000736AD091746ACC0FDD1F08F4DFEFCD2F59
:100EE000EDE5FBE611DEB093806BE091346AF091A2
:100EF000366AEF1708F4EF2FE093376AF091376AFC
:100F0000ECECEF9FE12DE093386A80911A70A0918C
:100F10003470B091806BBA1708F08160A091357081
:100F2000B0916E6BBA1708F08460A0913670B091E2
:100F3000706BBA1708F088600E94B02509F08260D3
:100F40000E94B42580931A700895529B05C0E8EB67
:100F5000FAED3DCE5299FBCFE0EDFAED38CE20927E
:100F60005168E2E5F8E621922192219221922192A4
:100F7000219221922192219200DE3DC10895E091BB
:100F8000276AE33019F099818A8103C090E0898152
:100F90008F77EFB7F8948093106A9093116AEFBF40
:100FA0000895FCDAE881E4FBEE0FE0F9E6FBEF716F
:100FB000E43010F4E6950DC0E450F0E08091197033
:100FC00084FDE35C84FDFF4884FFE45284FFF04528
:100FD000E081E7F99FD1EF13D0DD0FC103070C10BB
:100FE00015191E22272B3034393D42464B4F545899
:100FF0005D61666A6F73787ED1DAE9818BD1EF1318
:10100000BCDDFBC0CBDAE98185D1FE27F0E08A8127
:1010100090915268809352688927F82BE091276A53
:10102000E530C8F08B81909153688093536889278D
:10103000F82BE63080F08C8190915468809354684E
:101040008927F82BE73038F08D819091556880938F
:1010500055688927F82BF21190DDCDC0FF27E0916C
:10106000126A8091136A8695EE1FE095EF71888170
:1010700084FB880F80F99091526845D18093526823
:10108000F2117BDDBEC0FF27E091126AEE0FE09502
:10109000E07E88819091526836D180935268888131
:1010A000880F829590915368E091126AEE0FEE1FBF
:1010B000E095E17028D180935368F2115EDDA1C004
:1010C000FF278881880F90915368E091136AE0951B
:1010D000EE7119D180935368F2114FDD92C0FF2752
:1010E000E091136AE5FD089589819091536802D1DA
:1010F0008093536889819091546800D1809354689B
:10110000F2113BDD7EC0FF27E091136AE5FD0895F3
:10111000898190915468EED0809354688981909130
:101120005568ECD080935568F21127DD6AC0FF271F
:10113000E091136AE6FD0895898190915568DAD0AF
:1011400080935568898190915668D8D0809356686D
:10115000F21113DD56C0FF27E091136AE6FD0895F2
:10116000898190915668C6D0809356688981909104
:101170005768C4D080935768F211FFDC42C0FF2744
:10118000E091136AE6FD0895898190915768B2D085
:1011900080935768898190915868B0D0809358683F
:1011A000F211EBDC2EC0FF27E091136AE6FD0895F3
:1011B0008981909158689ED08093586889819091D8
:1011C00059689CD080935968F211D7DC1AC0FF2768
:1011D000E091136AE6FD08958981909159688AD05B
:1011E00080935968898190915A6888D080935A6811
:1011F000F211C3DC06C001D004C0E09151680C9428
:10120000BE128091526884FF08C02092906820929C
:101210009168209292682092936880915368089513
:10122000ACCC0895B7D9C1F430D031F482E0CEEF20
:10123000D4E10E94952717CC8091276A853038F039
:101240002196E0E2F8E683E02DDC31F00CCCF98168
:10125000E0912268FE1307CC0895E881E93008F098
:101260000895F0E0EB5CF64E099408C008C008C091
:1012700008C0089508950895089508950895F1CB3C
:10128000F0CBE1E0E093506878CCF0914C68E091CD
:101290004D68EF2B0895E23060F1009005701090DA
:1012A00001700118039400928E68009004701090F1
:1012B00005700118039400928F68FE2FE03408F047
:1012C000FFE300908E680F9E000C111CF0910170DE
:1012D000F695F10DE03438F0EF5300908F680E9ED4
:1012E000000C111CF10DEF2FE7FDEFE7E23008F4E1
:1012F000E2E008958295880FE0EE05C08695869518
:101300008695EFE100C08E23E095E9238E2B982788
:10131000F92B0895FE2F8091146A82110895F0919F
:101320000F70F078EC99EF2780911970F0E880FD4C
:10133000EF2780912268F091E169F07887FDEF272F
:10134000E7FBEF77A8DFE7F9F0915168E093516888
:101350000895A881A3700E94CC28B981CF93DF9310
:101360000E947928DF91CF91689409F4E89478F588
:10137000F881EA81FC7039F0F43031F0FC3041F052
:10138000E4FF1BC00CC023C016F1AE17F9F01FC05C
:10139000AE2F0E947D28D9F4D0F4216017C0E3FB62
:1013A0000E944315E095AE23E0950EF4AE2B0E940B
:1013B0007D2869F460F4216009C04EF0E3FB63DB33
:1013C000AE230EF0EE27EA2709F001C0F0C8089519
:1013D000A881A3700E94CC28B9810E94792811F4B9
:1013E000EA2F30C124C1AA81B9810E94CD28E881A9
:1013F000E370E093726BBB810E94792899F7A09308
:10140000736BB3950E94792869F7A093746BB395B9
:101410000E94792839F7A093756BB3950E947928BB
:1014200009F7A093766BC2E7DBE60EC100C181F439
:101430000E945727E53060F0A881A3700E94CC2855
:10144000B981AA810E947D2821F42160EA2FFAC087
:10145000F6C0EDC0B9F50E945727E13198F1B98186
:10146000AA810E94CD28E2E7FBE6A881A370A083B1
:10147000AC81A183BD81B283BE81B383BF81B483BC
:10148000BB810E947D28F9F4A093736BB395A09162
:10149000746B0E947D28B9F4A093746BB395A091EE
:1014A000756B0E947D2879F4A093756BB395A0911C
:1014B000766B0E947D2839F4A093766B2160C2E799
:1014C000DBE6C2C0BCC0B3C00E94642778F0A0E0D5
:1014D0000E94CC28BCE10E94792849F4E881E0FB15
:1014E000A5F90E947D2819F42160C3C0A8C09FC03F
:1014F000E0EFE093D86A0E944B16E093D96A0E940D
:101500005B16D093DA6AC093DB6AB093DC6AA0936F
:10151000DD6AC4EEDAE6E0E8E88385E00E945D1566
:10152000E883CEEDDAE6E0EDE883E0E0E983E0E0B1
:10153000EA832B822C8285E00E945D15E88322D00D
:1015400000C0F7E0E0910A0BEF230DC0E091EE6AD6
:10155000F091EF6AEA953AF4FF0FF760FF77E091B8
:101560000A0BEF2300C0E093EE6AF093EF6A089550
:10157000F0914C68E0914D68EF2B0895E091ED6A91
:10158000EE2308952092ED6A0895F091EC6AE093BD
:10159000EC6AFE1B08F4F195F53008F0F3CF0895DE
:1015A000CF93DF93E8EDFAE6A991AF70B191BF70E8
:1015B000AB1731F4A991B191AB1711F4EE3DD1F70E
:1015C000DF91CF910895E091816BE395E33008F0CE
:1015D000E0E0E093816BF0E0E151F54E099402C048
:1015E0000CC015C0E0911970E5FF05C0E0910D70C9
:1015F000EF73E068BFC0E0E0BDC0E0911970E5FFA7
:1016000003C0E0910E70BBC0E0910070B3C0E091E8
:101610001870E3FFD8CFF0913A6AE0E0F2FDE160A4
:10162000F3FDE260F1FDE460F5FDE860ADC09DD042
:10163000CACF9BD0AED0C7CF98D0AFD0C4CF95D0B3
:10164000AED0C1CFB0D0BFCFE991DE0181D0E85F8D
:10165000E883ED91E983ED91EA83ED91EB83ED91E0
:10166000EC83A6D0B0CFE0E0F0E0A0E0B0E0C1D0E5
:10167000C8C07BD0E091826BE395EA3008F0E0E0EF
:10168000E093826BF0E0E85BF44E62D009959BCF6B
:1016900090C008C009C00AC00BC00CC00DC00EC06D
:1016A0000FC010C011D014C03FD042C045D04CC0B4
:1016B00047D02EC011D014C017D01AC01DD020C0E2
:1016C00023D026C029D02CC0E0919C68F0E080C0D7
:1016D000E0918768F7E07CC0E091806BF8E078C02B
:1016E000E0910468F9E074C0E091C66AFAE070C065
:1016F000E091C26AFBE06CC0E0919868FCE068C0D1
:10170000E0919968FDE064C0E0917F6BFEE060C00D
:10171000E091CB6AFFE05CC0E091106AF0E158C054
:10172000E091116AF1E154C0E0919268F8E150C093
:10173000E0919368F9E14CC0E0916E6BFAE148C02A
:10174000E0916F6BFBE144C0E091706BFEE240C042
:10175000CEEED9E60895A6EEB9E60895A8EEB9E66C
:101760000895A091E569B9E60895F8DFA093E569C9
:10177000089547C0EDDFF1E0F883E98349C0E8DF71
:10178000F2E0F883E98344C0E3DFF3E0F883E98320
:101790003FC0CFE041C0C0EF3FC0CCE33DC0CFE091
:1017A0003BD0CCE339C0D4DFE0DF2882E9833AC004
:1017B00042C0C6EFD9E6E4E0E883A0E8B8E6ED91E0
:1017C000EC83ED91EB83ED91EA83ED91E98333C0F6
:1017D000E983FA83F7E0F8832AC0EF9AC8EDDAE6E6
:1017E00034C0EF9ACEEDDAE630C0EF9AC4EEDAE616
:1017F0002CC0AEDFE883F983AA83BB83E0E1EC83EE
:101800001FC0F091FB69FF0F28F1FF0F18F12BC0EB
:10181000A2DFE3E021D0A3CAA4DFE1E01DD0CD9395
:10182000A5CF9FDFE3E018D09ADAA0CF9ADFE7E0F8
:1018300013D093DA9BCF92DFFFE315D08ADA96CFED
:101840008DDFFFE310D087DA91CF85DFFFEF0BD07C
:101850007EDA8CCFF0E007C0F091FB6902C0FF1F79
:10186000C8F3E695E0F3F093FB6908958F93E5E103
:10187000FAE6A091276A8A2F8C0FB081A193BA173C
:10188000A081B991BA07B1938C13FACFC091246AA1
:101890008F910895E2E013C0E3E011C0E4E00FC0CF
:1018A000E5E00DC0E6E00BC0EAE009C0E3E0F4E0EB
:1018B00007C0E4E0F7E004C0E6E0F9E001C0FE2F75
:1018C000AE1718F0FA1708F00895E0918C68F091BF
:1018D0008D683196E0938C68F0938D68E091846810
:1018E000E395E0938468EF91EF9100C0E0E09DC044
:1018F0006ADEE3E29AC0CEDFEDE197C0CBDFB9DE6E
:10190000E1E093C0C9DFB5DEE4E28FC0C5DFB1DE40
:10191000E2E08BC0CEDFADDEE3E087C0BDDF8CDE72
:10192000E4E083C0C3DF85DEEFE17FC0B3DF81DEAB
:10193000E0E27BC0AFDFC8DDE1E277C0B3DFE5E026
:1019400074C0ACDFE6E071C0A7DF76DEE7E06DC013
:10195000A5DF72DEE8E069C09DDF8BDEE9E065C0EF
:1019600099DF87DEEAE061C095DF83DEEBE05DC0F2
:1019700093DF7FDEECE059C08FDF7BDEEDE055C00A
:101980008BDF77DEEEE051C087DF73DEEFE04DC026
:1019900083DF6FDEE0E149C07FDF6BDEE1E145C060
:1019A0007BDF67DEE2E141C075DFE091296AE39504
:1019B000E211E093296AE3E13AC06CDF3DDEE4E145
:1019C00034C074DF39DEE5E130C0A43011F058F4E2
:1019D0001CC0E881E3FD03C0FBDCE6E126C046DF76
:1019E00026DDE7E122C0E881FE2FE370F3FD06C0AB
:1019F000F2FF09C055DFF7DCE8E117C05DDF36DF35
:101A000029DDE9E112C0EBE110C0E2E20EC0EEE137
:101A10000CC04CDFE0912A6AE395E211E0932A6A58
:101A2000E23009F496DCEAE104C02092296A2092AF
:101A30002A6AE093266AE091D069E093256A2062E1
:101A400008952EDFEA81A1DD93DD39F497DD29F4D5
:101A50007DDD19F4C2DEE5E2E8CF48CF21DFEA817F
:101A600094DD86DD31F48ADD21F470DD11F4E6E2E7
:101A7000DCCF3CCF15DFEA8188DD38CF11DFEA818A
:101A800084DD76DD31F47ADD21F45BDDA6DEE8E28B
:101A9000CCCF2CCF219784DD09F02ACFE1E0E09371
:101AA000ED6AA3DEE9E2C1CFFFDE219779DD09F01F
:101AB0001FCFFE81EF81F06CF0930F6AE0930E6A06
:101AC000E1E0E093ED6A8DDEEAE2AFCFECE2ADCF8C
:101AD000E091276AE350EB30F8F4E093276AF0E0F6
:101AE000E157F24E0995D1F4E091276AA4E3BBEBEC
:101AF000AE0FB21DBC91CB0FAE2FAB1BA093276ACC
:101B0000C093246AD9E6E881E93040F4F0E0E05679
:101B1000F24E0995EBE289CFD8DEE8CEE9CE1FC0C0
:101B20001CC01DC02DC019C025C02AC026C022C09F
:101B300016C023C0000000020004020604000600D4
:101B400008C007C006C005C006C005C004C003C069
:101B500002C089DD089570DD089518940895989461
:101B60000895E8E4F8E621C0ECE4F8E61EC0EEE4EF
:101B7000F8E61BC0E0E4F8E610C0E4E4F8E605C0CF
:101B8000F3DFD1F0EEDFC1F0F2CFA581BD81AB175D
:101B900099F4A481BC81AB1779F4A381BB81AB1705
:101BA00059F4A281BA81AB1739F4A181B981AB177D
:101BB00019F4A081B881AB170895E0E0E093CA69F9
:101BC0002092FB690895FFFFFFFFFFFFFFFFFFFF6C
:101C000024C04CC04EC057C060C07CC19CC1D0C174
:101C1000DEC100C207C215C21DC225C22DC238C214
:101C200060C07CC0BBC00DC122C13FC141C142C127
:101C300043C144C145C146C147C148C149C14AC168
:101C40004BC14CC14DC14EC14FC1E2E0E093110BFD
:101C5000332424C0E0918868F09189683196E0933C
:101C60008868F09389680AC0E0918A68F0918B686F
:101C70003196E0938A68F0938B6800C0E0918468A5
:101C8000E395E093846800C0332403C0E3E03E2E74
:101C900000C0E398E998ED98E1E029C20E94FA2794
:101CA00000C0ED99F1CF86F73394EAE1FBED0E9495
:101CB000E715E3E01CC2ED99E7CF36F73394E2E392
:101CC000FBED0E94E715E4E012C2ED99DDCF2EF4A2
:101CD000339409F43A94E4E00AC2E32DE43108F4C1
:101CE000D3CF3092D069E091C869F091C969F69577
:101CF000E795F695E795F695E795E21DE001FBEA95
:101D0000EF9F1092FE690E01E39A1FD9E2EDF9E60A
:101D1000CFE02192CA95E9F7E1E1E9C10EF0ED9932
:101D2000B3CFE091C869F091C969F695E795F6954A
:101D3000E795F695E795E21DE001FBEAEF9F10922B
:101D4000FF690E01E39A06D9EE27529BEFEFF0915F
:101D5000E169E093E169FE13EE9AE998EA98EF9859
:101D6000EB98EC982092D1692092CF69E091856838
:101D7000E395E43650F0E0918468F0918668E09352
:101D80008668EF1BE0938768E0E0E0938568E09168
:101D9000E369E395E093E369E5E1A9C1ED995ACFE1
:101DA000E091D169EF3008F05FCFF2EDEF0FF9E687
:101DB000F21D3192E25DE093D169E091CF69E325B4
:101DC000E093CF695EF509F04FCFE3E0E093110BAC
:101DD000E0918068F09181683196E0938068F0939B
:101DE0008168E0918268F0918368E21DF21DE093C2
:101DF0008268F0938368E091C869F091C969F695AB
:101E0000E795F695E795F695E795E21DE001FBEA83
:101E1000EF9F1092026A0E01E4E169C1E091C86986
:101E2000F091C969F695E795F695E795F695E795EA
:101E3000E21DE001FBEAEF9F1092006A0E01E3E170
:101E400056C1ED9B0EF406CFE091C869F091C969C7
:101E5000F695E795F695E795F695E795E21DE0018D
:101E6000FBEAEF9F1092016A0E01E5E140C1E2E05A
:101E7000E093110B2092C6692092C769ED9B0EF08A
:101E8000E9CEE091C869F091C969F695E795F695B4
:101E9000E795F695E795E21DE001FBEAEF9F1092CA
:101EA000036A0E0130D1E5E022C1E398E6E11EC0ED
:101EB000E7E121C0E8E11AC0E9E11DC0EAE116C08E
:101EC000EBE119C0ECE112C0EDE115C0EEE10EC08E
:101ED000EFE111C0E0E20AC0E1E20DC0E2E206C0BB
:101EE000E3E209C0E4E202C0E2E105C0ED99B2CE4E
:101EF000330C30F8FCC01EF030FCACCEF8C030FE25
:101F0000A9CEF5C0E39AE8EEFAED0E94E7150EF0CF
:101F1000BBCEC091FB69D0911970EB99D860D3FF0B
:101F2000C070D0911870EB99D260EA99D0FFCC7F45
:101F3000EC9BD1FFC370EF99CFEFC093FB69529B2D
:101F40007799A4CE00C0E99AD0912A70C0910A0B6B
:101F5000CD23D0912970CD0FCF70C093FC69C15BA8
:101F6000DCE0F001CD9F00921C0B10921D0B0F01C5
:101F7000E091C869F091C969F695E795F695E795FE
:101F8000F695E795E21DE001FBEAEF9F1092046AE7
:101F90000E01E0E0E093110BE091FB69E0FF06C069
:101FA000C090E669E89AEFE0E0931301E7E09FC094
:101FB000F091FB69E091E769F1FDE0930208E8E642
:101FC000F1E0E0931C0BF0931D0BE8E090C0D09182
:101FD0002C70C0910A0BCD23D0912B70CD0FCF70F8
:101FE000C093FD69CE5AD091FC69CD1BDCE0F001B5
:101FF000CD9F00921C0B10921D0B0F01E091FB690D
:10200000E2FF06C0C090E869E89AEFE0E0931301B0
:10201000E9E06DC0E0EFF0E0E0931C0BF0931D0BE6
:10202000EAE065C0F091FB69E091E969F3FDE093B6
:102030000208E0EEF1E0E0931C0BF0931D0BEBE0E7
:1020400056C0F091FB69E091EA69F4FDE093020863
:10205000ECE04DC0F091FB69E091EB69F5FDE09398
:102060000208EDE044C0F091FB69E091EC69F6FDF7
:10207000E0930208EEE03BC0F091FB69E091ED696E
:10208000F7FDE0930208E2E0E093110BEFE02FC0D0
:10209000E001E091C669F091C769F695E795F6957C
:1020A000E795F695E795E21DFBEAEF9FE12DEC51F0
:1020B000F091FD69EF0FE093056A0E01F091FB6965
:1020C000FC7F91F0EEEFF9E6C191C783C191C78320
:1020D000C191C783C191C783C191C783C191C78390
:1020E000C191C783C191C7832092FB69CDCDE09395
:1020F000CA69AF91BF91CF91DF91EF91EFBFEF919F
:10210000FF9118950895C2EDD9E6A091D16920926A
:10211000266AE881E257F0E0FF4D0994FFC014C140
:1021200013C112C111C110C10FC10EC10DC10CC12B
:102130000BC10AC109C108C107C106C105C104C15B
:1021400003C102C101C100C1FFC0FEC0FDC0FCC08F
:10215000FBC0FAC0F9C0F8C0F7C0F6C0F5C0F4C0C3
:10216000F3C0F2C0F1C0F0C0EFC0EEC0EDC0ECC0F3
:10217000EBC0EAC0E9C0E8C0E7C0E6C0E5C0E4C023
:10218000E3C0E2C0E1C0E0C0DFC0DEC0DDC0DCC053
:10219000DBC0DAC0D9C0D8C0D7C0D6C0D5C0D4C083
:1021A000D3C0D2C0D1C0D0C0CFC0CEC0CDC0CCC0B3
:1021B000CBC0CAC0C9C0C8C0C7C0C6C0C5C0C4C0E3
:1021C000C3C0C2C0C1C0C0C0BFC0BEC0BDC0BCC013
:1021D000BBC0BAC0B9C0B8C0B7C0B6C0B5C0B4C043
:1021E000B3C0B2C0B1C0B0C0AFC0AEC0ADC0ACC073
:1021F000ABC0AAC0A9C0A8C0A7C0A6C0A0C09FC0AD
:102200009EC09DC09CC09BC09AC099C098C097C0FA
:1022100096C095C094C093C092C091C0B0C0AFC0EA
:10222000AEC0ADC0ACC0ABC0AAC0A9C0A8C0A7C05A
:10223000A6C0A5C0A4C0A3C0A2C0A1C0A0C09FC08A
:102240009EC09DC09CC09BC09AC099C098C097C0BA
:1022500096C095C094C093C092C091C090C08FC0EA
:102260008EC08DC08CC08BC08AC089C088C087C01A
:1022700086C085C084C083C082C081C080C07FC04A
:102280007EC07DC07CC07BC07AC079C078C077C07A
:1022900076C075C074C073C072C071C071C070C0A8
:1022A0006FC06EC06DC06CC06BC06AC069C068C0D2
:1022B00067C066C065C064C063C062C061C060C002
:1022C0005FC05EC05DC05CC05BC05AC059C058C032
:1022D00057C056C055C054C053C052C051C050C062
:1022E0004FC04EC04DC04CC04BC04AC01AC019C0F0
:1022F00018C017C016C015C014C013C012C011C03A
:1023000010C00FC00EC00DC00CC00BC00AC009C069
:1023100008C007C006C00DC009C00EC0A15021965C
:1023200070C0A093276AC093246A6FCBA1502196F6
:1023300025C1A15021962BC2A150219617C1E09131
:10234000296AE33008F065CBEA9AE991A1506894D4
:10235000F091106AFE13E894B091116AB211E894FA
:10236000BF2BF0910E6AFE1739F4F0910F6AF7FD5A
:1023700003C0B21128C045C00EF0BACA32C045CB66
:10238000EA9AE981F881A2502296E33021F4F03CE8
:1023900011F4EB9A57C0B0910F6ABF17B0910E6A53
:1023A000BE0741F4E091106AF091116AEF2BE2113F
:1023B0000AC027C0B091116ABF17B091106ABE075A
:1023C00009F096CA0EC0E0911170EC67E093126AB2
:1023D000E0911270E160E093136AE1E0E093146A27
:1023E00016C0EC9AE0911170E095E378E093126AE0
:1023F000E0911270E095EE7FE093136A2092146AE8
:1024000006C02092126A2092136A2092146AA09346
:10241000276AC093246AE881E295EF70EE5EF0E0EF
:10242000FD4D09942BC040C055C054C067CA66CA50
:1024300065CA64CA91CA90CA97CA92CA71C070C06C
:10244000C4CABFCAA093276AC093246AEA98E881E5
:10245000E295EF70E25DF0E0FD4D0994D4CAD3CA75
:10246000D2CAD1CAD0CACFCACECACDCACCCACBCAA8
:10247000CACAC9CAC8CAC7CAA8CAA3CAE991EF705A
:10248000EC5BF0E0FD4D09948FCA97CAC0CABFCA81
:10249000BACAB9CAB8CAB7CAB6CAB5CA4BCA4ACA0A
:1024A000B2CAB1CAB0CA42CAE991EF70E65AF0E0C6
:1024B000FD4D0994A8CAA7CA35CA34CAA4CAA3CA7A
:1024C000A2CAA1CAA0CA9FCA9ECA9DCA9CCA9BCAC8
:1024D0009ACA99CAE991EF71E059F0E0FD4D09946B
:1024E00092CA91CA90CA8FCA8ECA8DCA8CCA8BCA28
:1024F0008ACA89CA88CA87CA86CA85CA84CA83CA58
:1025000082CA81CA80CA7FCA7ECA7DCA7CCA7BCA87
:102510007ACA79CA78CA77CAFDC900CAF3C9F6C9A6
:10252000E991EF71EA56F0E0FD4D099411CA06CA2F
:1025300008CA69CA68CA67CA66CA65CA64CA63CA79
:1025400062CA61CA60CA5FCA5ECA5DCA5CCA5BCA47
:102550005ACA59CA58CA57CA56CA55CA11CA14CAF9
:1025600017CA1ACA1DCAF0C903CA06CAA093276AA5
:10257000C093246AE881E21146CABDC9A093276AC4
:10258000C093246AE991E953F0E0FD4D09943BCAF8
:102590003ACA39CA38CA37CA36CA35CA34CA33CA37
:1025A00032CA31CA30CA2FCA2ECA2DCA2CCA2BCA67
:1025B0002ACA29CA28CA27CA26CA25CA24CA23CA97
:1025C00022CA21CA20CA1FCA1ECA1DCA1CCA1BCAC7
:1025D0001ACA19CA18CA17CA16CA15CA14CA13CAF7
:1025E00012CA11CA10CA0FCA0ECA0DCA0CCA0BCA27
:1025F0000ACA09CA08CA07CA06CA05CA04CA03CA57
:1026000002CA01CA00CAFFC9FEC9FDC9FCC9FBC98B
:10261000FAC9F9C9F8C9F7C9F6C9F5C9F4C9F3C9BE
:10262000F2C9F1C9F0C9EFC9EEC9EDC9ECC9EBC9EE
:10263000EAC9E9C9E8C9E7C9E6C9E5C9E4C9E3C91E
:10264000E2C9E1C9E0C9DFC9DEC9DDC9DCC9DBC94E
:10265000DAC9D9C9D8C9D7C9D6C9D5C9D4C9D3C97E
:10266000D2C9D1C9D0C9CFC9CEC9CDC9CCC9CBC9AE
:10267000CAC9C9C9C8C9C7C9C6C9C5C9C4C9C3C9DE
:10268000C2C9C1C9C0C9BFC9BEC9BDC9BCC9BBC90E
:10269000BAC9B9C9B8C9B7C9B6C9B5C9B4C9B3C93E
:1026A000B2C9B1C9B0C9AFC9AEC9ADC9ACC9ABC96E
:1026B000AAC9A9C9A8C9A7C9A6C9A5C9A4C9A3C99E
:1026C000A2C9A1C9A0C99FC99EC99DC99CC99BC9CE
:1026D0009AC999C998C997C996C995C994C993C9FE
:1026E00092C991C990C98FC98EC98DC98CC98BC92E
:1026F0008AC989C988C987C986C985C984C983C95E
:1027000082C981C980C97FC97EC97DC97CC97BC98D
:102710007AC979C978C977C976C975C974C973C9BD
:1027200072C971C970C96FC96EC96DC96CC9B2C9A6
:10273000B1C9B0C9AFC9AEC9ADC9ACC9ABC9AAC9E5
:10274000A9C9A8C9A7C9A6C9A5C9A4C9A3C9ACC90B
:10275000ABC9AAC9A9C9A8C9A7C9A6C9A5C9A4C9F5
:10276000A3C9A2C9A1C9A0C99FC99EC99DC94BC976
:102770004AC949C948C947C946C945C944C943C9DD
:1027800042C941C940C95DC969C974C977C9A09323
:10279000276AC093246AE991E03F08F434C9EF70D6
:1027A000EC52F0E0FC4D099491C92DC92CC92BC9FC
:1027B0002AC929C928C98CC926C925C924C923C938
:1027C00022C921C920C91FC9E3EFFAE6A6E0BDEC82
:1027D000D0E0C1E0D583C083B183A2832682278263
:1027E000208624823A96D395D830A1F70898099884
:1027F0000B980A9893C112D0ED91FD91FC83FD9145
:10280000F887FD91F9876DD141F0E885EF3008F048
:10281000E0E0E853F0E0FA4D099473C2AD81AA0FED
:10282000AA0FB0E0AC57BF480895C3E4DBE6CF93EE
:10283000DF930E943F2BDF91CF912A97DCDF8E81BF
:102840009F8190FB9827917009F0BCD088818150BE
:1028500041F008F088838D81882349F715D137D15D
:102860005DC1F981EA8181918C3008F080E090E0CF
:10287000805C9B4D8F939F930895F983EA83EBCF00
:102880000BC00DC011C02CC036C03FC042C047C0F5
:1028900054C05CC062C068C00B807BD0DCCF0190AC
:1028A00078D011901882E9CF0E9403259F938F93CF
:1028B0008191982F92958F709F70092E081A03941A
:1028C0001F90109C180E64D08191982F92958F7054
:1028D0009F70092E081A1F90109C180E1882CDCFD9
:1028E0000E94032501909191091A0394182E109CBF
:1028F000190E4ED0B8CF0E94032501909191091A6C
:10290000182E109C190E1882B8CF91918191FC015C
:10291000AACF91918191FC018D810995A4CF0E944C
:10292000032501909191981708F4A7CF0394102CD8
:10293000100C100CE119F20996CFE89410800B806E
:10294000101460F021F43196319697CF689411906D
:102950000B800114C8F7039415C0689411900B8084
:10296000101490F70A940EC00E94032501909191D3
:10297000091A0394182E109C190E0B80101408F4D9
:1029800007D071CF06D0119018820EF476CF63CFA6
:10299000012C0B82A3E4BBE61D80A10DB21D0C929D
:1029A0000895FEECE4E503C0FEECECE700C08C818A
:1029B000843108F080E0880FE80FF21D9191819139
:1029C000FC0108958E8180F98E839DEC88E016F4D9
:1029D0009DEC8CE099838A8391E09883089513D0CD
:1029E0008F77089510C00FD009F4917008950BD01F
:1029F00009F49370089507D009F49770089503D0EF
:102A000009F49F70089580911A0B90910A0B892701
:102A10000895E3E4FBE6D091C16ADF70D395D4FD5D
:102A2000DA95C191CD17C091010ACE7F08F0C1603F
:102A3000C093010AC191CD17C091010ACD7F08F062
:102A4000C260C093010AC191CD17C091010ACF7E27
:102A500008F0C061C093010AC191CD17C091010A6D
:102A6000CB7F08F0C460C093010AC191CD1708F074
:102A7000489A08F44898C191CD1708F00F9A08F4C5
:102A80000F98319631960895ACE6B0E71AD080934E
:102A90003D6A17D0E0913C6A80933C6AE827E2FFE8
:102AA0000FC0E0916B6AE7FBEF7782FDEE0FE7FD69
:102AB000EEE782FFE695E0936A6AE7F9E0936B6AD6
:102AC000089581E0EE910DD0881FE0F70895ACE6FF
:102AD000B0E780E8ED9105D08795E0F780933E6AF6
:102AE0000895E53410F0EE2713C0E7FBEF771E2EB4
:102AF000E770F0E0EC5EF4430080169416941694B0
:102B0000E2E5F8E6E10DF21DE0810EF4E025E021BA
:102B1000E19508950102040810204080ECE7F0E7F9
:102B2000A4E1BBEDDAE08191CD91C2118883E23856
:102B3000D1F708951FB6F095F89400903A6A0F22E5
:102B40000E2A00923A6A1FBE08951FB6F095F894B7
:102B500000903B6A0F220E2A00923B6A1FBE089526
:102B6000E091396AEE230895E0913A70EE3108F071
:102B7000EEE1E0938506FFB7F894E091396AE15001
:102B800010F0E093396AFFBFE1E0E0938606089514
:102B9000B8C0A2C016C01FC028C031C03AC040C0D3
:102BA00048C050C057C05EC06EC077C063C07FD001
:102BB00083FDA7C082FD90C080FDA3C090FFA1C08F
:102BC0008BC075D083FD9DC082FD86C080FD99C0FD
:102BD00090FF97C081C06BD083FD93C082FD7CC005
:102BE00081FD8FC090FD8DC077C061D083FD74C022
:102BF00082FD87C080FD85C090FD83C06DC057D029
:102C000083FD6AC082FD7DC081FD7BC090FF79C0DD
:102C100063C04DD083FF91FD65C082FF63C053C088
:102C200046D083FF91FD5EC082FF5CC090FF69C00B
:102C30004AC03DD083FF91FD55C082FF53C090FD37
:102C400060C041C034D083FF82FF4CC091FD089525
:102C50003AD04EC02CD083FF82FF53C091FD90FD2F
:102C600050C03AC024D083FF82FF4BC091FD90FF3B
:102C700048C032C01CD082FD0895B3E0B823B21121
:102C800083FD3FC029C013D082FD0895B3E0B8236F
:102C9000B21183FD36C01DD031C009D082FD089528
:102CA000B3E0B823B21183FD2CC00AD021C08091BB
:102CB0003C6A90913A6AA985089591DE69F0089579
:102CC00091DE51F008958FDE39F0089590DE21F005
:102CD000089591DE09F00895E1E0EF8308957FDE25
:102CE00081F008957FDE69F008957DDE51F008954A
:102CF0007EDE39F008957FDE21F0089580DE09F050
:102D000008952F82089500000624D4000624D100DF
:102D100001000000010F010001000000010201019B
:102D20000401080F01000106010800010000020073
:102D30008102108102FF210703A002FE810701FF2B
:102D400000000200F10210F102FF210703A00000C1
:102D50000101140211F102FF2107028000000801A5
:102D600001043010010F01000801010430100104BA
:102D700008080F01000001000000090F01045020A5
:102D80000702FF0001000000080401000800010024
:102D90000108010253110801010406010704C004DF
:102DA000C040090F010702FF0000010F01010101EE
:102DB000045020046010090F010702FF00000B03FC
:102DC000010480400A00010702FF0000080401011D
:102DD0000F030104010801010101080705FF0000BC
:102DE00008000100010F0A01000A0702FF000200AB
:102DF000F102FFB90200B90702FF00000100010063
:102E0000010F010100130702FF00010F0101000182
:102E1000010F010100110704FF00010F0101000172
:102E2000010F01010001010F0101000F0706FF0062
:102E300001000100010001080F010801010702FF64
:102E40000000010011080F010801010702FF000046
:102E500008000100CD10CD14CD1CCD2ECD42CD509B
:102E6000CD5ECD68CD7ACD88CD90CDAACDCCCDE448
:102E7000CDEECE00CE0ACE1ACE34CE42CD10CD1835
:102E8000CD26CD76CD76CD76CD76CD76CD84CD8C56
:102E9000CDBECDBECDE0CDFCCDFCCE30CE30CE30E3
:102EA000CE50CE5020923F6A2092406A089504D0BE
:102EB000FE2FE0E2EF1B0895E091406AF0913F6A37
:102EC000EF1B08F4E1950895E091406AF0913F6AA4
:102ED0008894EF1308940895C091406ACF5BD0E0C6
:102EE000D549B993E993F993A993C154C03208F035
:102EF000CC27C093406A0895C0913F6ACF5BD0E071
:102F0000D549B991E991F991A991C154C03208F01C
:102F1000CC27C0933F6A089590E3889410C0A8819D
:102F2000A823A81711F492E106C0A881A823A81726
:102F3000B1F393E100C0A881A817A9F00894A0916B
:102F40000210A1FDFCCFA0FDFACFADE9A4BF909384
:102F5000001008F48993A4BFA1E0A0930010A091F1
:102F60000210A1FDFCCF08957DD06ED00BD00E9441
:102F70004F16E093316AF093326A20922B6A2092C6
:102F80002C6A089582E010904E6800904F68F0918E
:102F90004C68E0914D68EF01CD2BD9F4E0911070B1
:102FA000F4E6EF9FF0E0E211F0ECE0910F70EF77C4
:102FB0000E0E121C1F2A81E0E0910070EF77F0E006
:102FC000C0911970C5FF05C0F0910D70E0910E70B1
:102FD000F06CE0930E6AF0930F6A0092106A109200
:102FE000116A0128E0E0F0E20210EF2FA3DDCEEF3E
:102FF000D4E19BCFE0912B6AE23060F0E0912C6A43
:1030000020922B6A20922C6AE93020F4F0E0E55FF0
:10301000F74D0994089508C008C009C00AC00BC044
:103020000CC00DC00CC00CC040C00C9431150C94E9
:1030300033150C9437150C9441150C943C150895D8
:10304000F8946ADF0C943115B1D004D0B3D002D01B
:10305000B5D000C0B0E055D0B395A0912F6ABA1793
:10306000D1F70895E091FF14E03069F0EF3F09F0E7
:1030700053DF9CD009D09ED007D0A0D005D0CFEF91
:10308000D4E180E052DF0895B0E0A89506D0B39572
:10309000A0912F6ABA17D1F7089528D028F4D091BB
:1030A0002D6ACE2F8A2F3BDF0895F89481E0CEEF72
:1030B000D4E13BDF7BD0B0E0F0DFB0E1EEDFB395F1
:1030C000B431E1F70C943115E0912D6AE431EEE072
:1030D000EB0751F0E0910B70F0910C70EF1721F0BD
:1030E000EF91EF91989408951894089539D03396FC
:1030F0000994F0DF35D031960994E6DF31D032966D
:1031000009942ED030960994A0E027C0EA81A981C5
:1031100021C0EA81F0912D6AA081F0912E6AA083EE
:1031200019C0EA81F0912E6AA08114C0EA81F09161
:103130002E6AB0912D6AD0DE0DC0E981FA81A0819E
:1031400009C0E981FA81A08305C00F92C895A02D1E
:103150000F9000C0189408940895189488940895C6
:10316000CB2FD0912F6ACD1778F4D0E0CC0FDD1F94
:10317000CC0FDD1FF091306ADF0FE881E43149F0B8
:10318000F0E0EB55F24D0895C0E0D0EEE5EAFDE247
:103190000895E981FA810895B0E0B03099F4A03043
:1031A00029F0A13039F0A23049F00CC0A3ECBCEDFD
:1031B000F0E00BC0ADE7B0EEF0E007C0A1E0B2EE8A
:1031C000F1E003C0A0E0BCEDF0E0A0932F6AB09363
:1031D000306AFC5EF0932D6AF45AF0932E6A0895DB
:1031E00003C007C009C010C0A0910014A0930070D4
:1031F000B1CFA0910070AECFAA2329F022F0E0E079
:10320000F0E76ADEA7CF80CFE0E0A3E0A3CF7CCFDA
:1032100002C003C079CFADE09DCF0E94CA1261F415
:10322000E0912B6AF0912C6AFA13E0E0E395E093C9
:103230002B6AA0932C6A8ECF67CF03C007C009C04A
:1032400013C0A0910B14A0930B7084CFA0910B70AE
:1032500081CFAF3F11F4A0910C70A03F20F4EBE0C0
:10326000F0E73ADE77CF50CFEBE0A1E073CF03C0B9
:1032700007C009C00FC0A0910C14A0930C706ACFB6
:10328000A0910C7067CFA03F20F4ECE0F0E724DEC3
:1032900061CF3ACFECE0A1E05DCF03C007C009C029
:1032A0000FC0A0912F14A0932F7054CFA0912F7016
:1032B00051CFEA2F0E949112EFE2F0E70DDE4ACFE4
:1032C000EFE2A0E047CF20CF06C01ECF1DCF1CCF1E
:1032D00005C01ACF19CFE1E0F1E937CFE0E0F1E91D
:1032E00034CF0895D7E820C221D2D0D11FD2E091A7
:1032F0000210E1FDFACFE8DDC0F7FEDDC081CA179C
:10330000B1F3A083FB2FCDE9D3E1C4BFD09300106C
:10331000A083D1E0C4BFD0930010D1E0D0930410BB
:10332000D0930310E2CF0C94432C82E390E00E94F0
:103330007E2B0E941524F9CFF9D10E94D0160E944D
:10334000272CA4D1F9CF88EE93E00E947E2B4AD29D
:103350000E944519A9F03CD282E390E00E947E2BA6
:103360003CD288EC90E00E947E2B32D282E390E047
:103370000E947E2B32D288EE93E00E947E2BE7CF14
:1033800027D282E390E00E947E2B27D282EE94E047
:103390000E947E2BDCCF0C9409250C945A140E94B9
:1033A000CF160C94FC14E091E3692092E369E0935A
:1033B000E2690895F8EDEAE3DAE6C3E882E10E9403
:1033C0004D1514D037D03FD047D04FD057D05FD015
:1033D00067D06FD011272227D9E0C9E9C093BF6A0F
:1033E000D093C06A089578940C94FD29E3E8FAE636
:1033F000E093BC6AF093BD6A08950E9472292092FE
:10340000C36A2092C46A2092C56A1D7FE091C36A94
:10341000F091C46AC091C56A3196C21D11FDEFCF0B
:103420002223D1F3E093C36AF093C46AC093C56AC0
:103430002DD1ECCFE1E2FAE2E0933F69F0933E69EF
:1034400008950C947429EAE2FAE2E0935F69F0933C
:103450005E6908950C949329E3E3FAE2E0937F69AF
:10346000F0937E6908950C949529ECE3FAE2E093D9
:103470008169F09380690895A3E924C0E5E4FAE244
:10348000E0938369F09382690895A4E91BC0EEE498
:10349000FAE2E093A369F093A26908950C949C2941
:1034A000E7E5FAE2E093A569F093A4690895A6E937
:1034B00009C0E0E6FAE2E093C569F093C4690895B3
:1034C0000C94A3290C94811610FD7CC0F093CE6A55
:1034D000FFB7F093CD6A1160E093CF6AD093D06AC2
:1034E000C093D16AB093D26AA093D36A9093D46AFE
:1034F0008093D56A1092D66A0092D76AC091C16A49
:10350000C395C093C16A09F41860CF7009F41460C0
:10351000C0FD14C01061C091BF6AD091C06AC15093
:1035200015F41062C97F10F41064C979D04010F40A
:103530001068D970C093BF6AD093C06A17FD52D08B
:1035400073D00E94CB2914FD0E94CD2913FD0E9447
:10355000CF2917FD0E94D32914FF1BC0DAE6C9E961
:10356000A1E0E881F981319788F071F42A2BE88392
:10357000F983EA81FB81FE2B49F0FB810180A09554
:103580000A22A095018202C0E883F9832496AA0F3B
:1035900041F70090D76A1090D66A8091D56A9091D1
:1035A000D46AA091D36AB091D26AC091D16AD09105
:1035B000D06AE091CF6A1270F091CD6AFFBFF091AE
:1035C000CE6A0895F894E1E0F1E00E94022DFFEF49
:1035D0003197F1F7E0E0F1E00E94022DF0E431973D
:1035E000F1F7F0CFE091C46AF091C56AEE0FFF1FCA
:1035F000EBE8FE9F000C111CE4E6E119E093C26ABF
:103600001260C091C76AD091C86AC093C96AD0934A
:10361000CA6AD695C795D695C795C093C66A2092B3
:10362000C86A2092C76A0895E091C16AEF70E0937A
:10363000BE6AEE0FF0E0E15EF44D099408950C943B
:103640001E2B0C941E2B0C941E2B0C941E2B0C94D6
:103650001E2B0C941E2B0C941E2B0C941E2B0C94C6
:103660001E2B0C941E2B0C941E2B0C941E2B0C94B6
:103670001E2B0C941E2B0C941E2B0C941E2BF091C5
:10368000B96AFF0F11F02F1708F40895E091C76A87
:10369000F091C86A3196E093C76AF093C86AC09106
:1036A000BC6AD091BD6AEDB7FEB7E993F883E0E25A
:1036B000F22FC0E8FF0F30F019F0C695E450D1F7B3
:1036C000CC27EE27C093B96AE093BB6AE695E093F6
:1036D000BA6ADAE6C3E8CE0FD21DC093BC6AD093B3
:1036E000BD6AE991F881CFB7F894EDBFFEBFCFBFB7
:1036F000089591E0899FC00101C09927C5E9DAE6E4
:10370000B091BB6ACB0FD21DBFB7F8948883998361
:10371000D091B96AD0952D23BFBFB8CF07D0B6CF0F
:1037200003D0B4CFD091B96A2D2B0895D091B96A46
:10373000D0952D230895208221820895689401C098
:10374000E894D091B96ABFB7F894C081CC2321F036
:10375000CE7FC083BFBF0895C181CD2BC183BFBFC2
:103760000EF0DCCFCBCFBFB7F894C191D081DD2371
:1037700021F4C160C293BFBF089520822292BFBFCF
:103780000DC0BFB7F894D081D260D193D081DD2332
:1037900011F4BFBF08952082BFBF00C0E5E9FAE67B
:1037A000CD2F3496CC0F41F0E0F7F894219221927E
:1037B00021922192BFBFF6CFB7CF20820895BFB725
:1037C000F894A081AE7FA083BFBF0895F8DFB8CF83
:1037D000E1E0F1E00E94022D0895E0E0F1E00E94B6
:1037E000022D0895C3E8DBE6E6E2F8ED0C2E9FEF2C
:1037F000A191B191BF3F81F011968FEF83951D90FC
:103800001120E1F3821183958993981788F382112F
:10381000982F82110C2EECCF9093CB6A0894C0099C
:10382000C093CC6A08950069206940696069806925
:1038300082698469A469A669FFFF1F693D695D69A2
:103840007D697F698169A169A369C3690895E09170
:10385000A670EE2361F0E091F06AE2110895E09124
:10386000F16AE2110895EFEFE093F16A22600895A2
:10387000F091A47002C0F091A570FE23F21108959A
:10388000FF91FF9108950CD013D01AD023D02BD0E4
:1038900034D03DD046D04FD058D061D06AD0F3CF8D
:1038A000E1E0E6DF9DD0E0E575D0E0917A6A72C094
:1038B000E2E0DEDF95D0E1E56DD0E09151686AC0CD
:1038C000E4E0D6DF8DD0E3E265D0E091806BE7FDE8
:1038D000EFE760C0E0E8CCDF83D0E0E65BD0E091CA
:1038E0005268EF7157C0E1E0C6DF7AD0E1E652D00E
:1038F000E0915268F091536845C0E2E0BCDF70D0BF
:10390000E2E648D0E0915368F09154683BC0E4E0AF
:10391000B2DF66D0E3E63ED0E0915468F09155689E
:1039200031C0E8E0A8DF5CD0E4E634D0E09155682F
:10393000F091566827C0E0E19EDF52D0E5E62AD03C
:10394000E0915668F09157681DC0E0E294DF48D0DE
:10395000E6E620D0E0915768F091586813C0E0E4A3
:103960008ADF3ED0E7E616D0E0915868F0915968BA
:1039700009C0E0E880DF34D0E8E60CD0E091596877
:10398000F0E000C0E07EE295E695FF0FFF0FFF0F2D
:10399000EF2B00C0E093F26A0BD00AD009D008D018
:1039A00007D006D005D004D0F0E4E0E40C94B716BC
:1039B000E091F26AE695E093F26AF0ECE0E808F450
:1039C000E0640E94B71605D0F0E8E0E00E94B71668
:1039D00000C0E091A670F0E0FC963197F1F70895F1
:1039E000EFEFE093F06A84E190E00E947E2B20925A
:1039F000F06A0E948E2B2092F16A08950895E2E009
:103A0000F2E000C0EF23F0950090696B0F22E029EF
:103A100006C0E0E004C0EFEF02C0E1E000C0E093C8
:103A2000696B00C0E091696B0C945516EF23F0951B
:103A300000906A6B0F22E02908C0E0E006C0E5E5CF
:103A400004C0EFEF02C0E3E000C0E0936A6B00C087
:103A5000E0916A6B0C945316310B000001020131A6
:103A60000080716A000100404031008000000002C7
:103A7000310B0000010201310081716A0001004038
:103A80004031008100000002310B000001010231D1
:103A90000080716A00010040403100800000000297
:103AA000310B0000010102310081716A0001004008
:103AB00040310081000000023103000001030431A5
:103AC0000080776B0001004040310080000000065C
:103AD00031030000010403310080796B00010040D4
:103AE0004031008000000006110B0000010540116C
:103AF0000080616A0001010540110083736A0001C2
:103B00000142401100817B6B0001004040110080A8
:103B100000000002282A292C0000110B0000011FC0
:103B200040110080336A0001004040110080000015
:103B30000002110B0000011F40110080356A0001D6
:103B400000404011008000000002DECADDCADCCA6D
:103B5000DBCADACADBCAD8CAD7CADBCAE2CAE6CA33
:103B6000D5CAD2CAEACAD0CACFCACECAE6CAE9CA38
:103B7000CBCACACAC9CAC8CAC7CAFFFFFFFFFFFF6C
:103C000014F0287F080101FF081002FF081003FFCD
:103C100008FF04FF088005FF0423000014072900A3
:103C200008010603083207FF081008FF040400001B
:103C30000800090008000A00141D29FF143729FF95
:103C400008C30DFF08E80EFF08000FFF080010FF73
:103C5000080011FF080012FF0800130008001400FC
:103C60000000000000000000080017FF089E181167
:103C7000080A1911101A7000040000FF04FF00FF69
:103C80000000000000000000000000000000000034
:103C90000000000000000000000000000000000024
:103CA0000000000000000000000000000000000014
:103CB00000000000000000000804290F08002A0F7F
:103CC00008042B0F08002C0F08802DFF08032EFF7F
:103CD000144D29FF080330FF0800313F0803320F5D
:103CE000080033FF08FA34FF086435FF086436FF24
:103CF000088037FF088038FF08A039FF081E3AFF08
:103D0000000000000000000008033D7F08073E7F20
:103D1000080C3F7F0810407F0815417F0819427F3B
:103D2000081E437F0822447F0827457F082B467FD3
:103D30000830477F0834487F0839497F083D4A7F6B
:103D400008424B7F08464C7F084B4D7F084F4E7F03
:103D500008544F7F0858507F085D517F0861527F9B
:103D60000866537F086A547F086F557F0873567F33
:103D70000878577F087E587F000000000406000086
:103D80000C4068000C4168000C4268000C4368005D
:103D90000C4468000C4568000C4668000C4768003D
:103DA00008005AFF08005BFF04010000040900003E
:103DB0000C01A1000C0091000C0191000C0091007D
:103DC0000C1180000C108000146329FF146729FF78
:103DD0000C1717000CFF14000CFE140008015CFF08
:103DE00008025DFF08035EFF08045FFF080560FF2F
:103DF000080661FF080762FF08FF63FF08FF64FF12
:103E000008FF65FF08FF66FF08FF67FF08FF68FF00
:103E100008FF69FF08086AFF08096BFF083D6CFF8F
:103E2000083E6DFF083F6EFF08406FFF084170FFBE
:103E3000084271FF084372FF084473FF08FF74FFD4
:103E400008FF75FF08FF76FF08FF77FF08FF78FF80
:103E500008FF79FF08FF7AFF08FF7BFF08FF7CFF60
:103E600008FF7DFF08FF7EFF08FF7FFF08FF80FF40
:103E700008FF81FF0000820000008300080084FF2B
:103E8000080285FF080286FF08FF87FF080088FFF9
:103E9000080289FF08038AFF08FF8BFF08008CFFD8
:103EA00008028DFF08048EFF08FF8FFF080090FFB7
:103EB000080291FF080592FF08FF93FF08FF94FF97
:103EC000080095FF080096FF08FF97FF08FF98FF7E
:103ED000080099FF08009AFF08FF9BFF08FF9CFF5E
:103EE00008009DFF08009EFF08FF9FFF08FFA0FF3E
:103EF0000800A1FF0800A2FF08FFA3FF0887A4FF96
:103F00000803A5FF0800A6FF04550000FFFFFFFF00
:10400000040900000401000000000000000000009E
:104010000C4368000C4268000C4168000C406800CA
:104020000C4768000C4668000C4568000C446800AA
:104030000C0878000C0978000C0A78000C0B78004A
:104040000C0C78000C0D78000C0E78000C0F78002A
:104050000C1078000C1178000C1278000C1378000A
:104060000C1478000C1578000C1678000C177800EA
:104070000C1878000C1978000C1A78000C1B7800CA
:104080000C1C78000C1D78000C1E78000C1F7800AA
:104090000C2078000C2178000C2278000C2378008A
:1040A0000C2478000C2578000C2678000C2778006A
:1040B0000C2878000C2978000C2A78000C2B78004A
:1040C0000C2C78000C2D78000C2E78000C2F78002A
:1040D0000C3078000C3178000C3278000C3378000A
:1040E0000C3478000C3578000C3678000C397800E8
:1040F0000C3A78000C1A78000C1B78000C816A00CE
:104100000C826A00000000000000000000000000B7
:104110000000000000000000000000000C9068009B
:104120000C9168000C9268000C9368000C98680071
:104130000C9968000C8068000C8168000C82680093
:104140000C8368000C8868000C8968000C8A680081
:104150000C8B68000C8C68000C8D68000C066A00E3
:104160000C076A000C086A000C096A000C0A6A0055
:104170000C0B6A000C0C6A000C0D6A000CD0690074
:104180000CE169000CE269000C7D6B000C7E6B0099
:104190000C7F6B000C0268000C0368000C046800C4
:1041A0000C0568000C0068000C0168000CFD140090
:1041B0000C836B000C846B000C856B000C866B0011
:1041C0000C876B000C886B000C896B000C8A6B00F1
:1041D0000C8B6B000C2168000C2068000C2268001E
:1041E0000C0E6A000C0F6A000C106A000C116A00B9
:1041F00004550000FFFFFFFFFFFFFFFFFFFFFFFF72
:1042000004550000FFFFFFFFFFFFFFFFFFFFFFFF61
:00000001FF
; 
; *** EOF 
